:100000000C9454040C9471040C9471040C947104B9
:100010000C9471040C9471040C9471040C9471048C
:100020000C9471040C9471040C9471040C945F167C
:100030000C9471040C9471040C94CB150C94710401
:100040000C9471040C9471040C94CE160C94131738
:100050000C9471040C9471040C9471040C9471044C
:100060000C9471040C947104BE09C609D609E40904
:10007000F209000A100A470A4F0A5D0A6B0A790A58
:10008000890A970AA50AB30AC10ACF0ADF0A130E22
:100090001B0E290E370E450E550E630E710E7F0E88
:1000A0008D0E9B0EAB0E140F220F300F3E0F4E0F16
:1000B0005C0F6C0F791187119511A311B311C11148
:1000C000D111D218CA18CA18CC18D418CA18CA180C
:1000D000CE18D618CA18CA18D018D818ED1DF01D99
:1000E000F31DF61DF91DFC1DFF1D021E1F1E221E05
:1000F000251E281E2B1E2E1E311E6C23E123F723E6
:1001000003241924252438244B245F248E249A2484
:10011000C924D524E9240025E52863297F29A029BD
:10012000C929012A272A0305020502050300000048
:1001300000000101010100010305050000000405A4
:100140000F050F0503070607030704000D0A050B3B
:10015000040E08070A0F010101000000020102025B
:100160000201020201010102030005020500030071
:100170000207020002000000010203000007000065
:100180000100000000010200010102020307050551
:100190000507030602020207030701070407030716
:1001A000010601070301050507010307040701070D
:1001B00003070407050703070101020203070507F8
:1001C0000507030705070107010001000001020000
:1001D00001000102030102040201030007000700FD
:1001E0000304020102040307010300020407090BD0
:1001F00008070307050507050307050605070307A5
:10020000040404070306050505060307040704079D
:10021000030704070404030704050507030505078E
:100220000505030702020207030301010106030596
:100230000506050503040404040705111B15111127
:1002400004090D0B09090307050505070307050543
:10025000070403070505060303070505060503074D
:100260000402010703070202020203050505050750
:1002700003050505050605111515151E03050502DF
:10028000050503050507020203070102040702032F
:100290000202020302000202010102030101010342
:1002A0000302050000000300000000070302010034
:1002B0000000030006030507030407050507030004
:1002C00007040407030107050507030003050603E8
:1002D00002030203020203000305030603040705E9
:1002E00005050101000101010201000101020304F1
:1002F0000506050502030101010105001E1515157E
:1003000003000605050503000705050703000705AB
:1003100007040300070507010200030202020300AD
:100320000306010702020302020303000505050795
:1003300003000505050605001515151E0300050239
:100340000505030005050306030007020407030370
:100350000206020301010101010103060203020674
:1003600003070000000003070507000008081C3E03
:10037000000008003E1C080008243636240008004F
:10038000046E040008241818240008042C381000F7
:10039000051F1111111F051F1315191F0100000062
:1003A00001000100010000000400000D0B0008E244
:1003B000ACCAAAEA08086EAA6ACA0880D89595D479
:1003C0000800DB5289DB0800FFD5AAFF0800FF55B3
:1003D000ABFF0800FFF0F8FF0800FF0101FF080075
:1003E000FFFFFFFF0800FF0181FF0800FFF1F9FF99
:1003F00008E05B515253080435A6A5B508401855CE
:1004000054550500180818150300030707000300DA
:10041000050707000300060707000300070607009B
:10042000030007070600030007070500030007078E
:1004300003000300070307000000000000000000A5
:1004400000000000000000000000000000000000AC
:10045000000000000000000000000000000000009C
:10046000000000000000000000000000000000008C
:10047000000000000000000006000C001200180040
:100480001E0024002A00300036003C0042004800D4
:100490004E0054005A00600066006C007200780044
:1004A0007E0084008A00900096009C00A200A800B4
:1004B000AE00B400BA00C000C600CC00D200D80024
:1004C000DE00E400EA00F000F600FC000201080192
:1004D0000E0114011A01200126012C0132013801FC
:1004E0003E0144014A01500156015C01620168016C
:1004F0006E0174017A01800186018C0192019801DC
:100500009E01A401AA01B001B601BC01C201C8014B
:10051000CE01D401DA01E001E601EC01F201F801BB
:10052000FE0104020A02100216021C022202280224
:100530002E0234023A02400246024C025202580293
:100540005E0264026A02700276027C028202880203
:100550008E0294029A02A002A602AC02B202B80273
:10056000BE02C402CA02D002D602DC02E202E802E3
:10057000EE02F402FA02000306030C032A152A1500
:100580002A152A152A1500000000000000000000AE
:100590000000382B370E1C3B35371E3F33333333C7
:1005A00033333F1E1C1C0C0C0C0C0C0C1E1E3E3F4F
:1005B0000303070E1C383F3F3F3F03070E0F0303A3
:1005C0003F3E0333333333333F3F03033F3F303E3C
:1005D0003F0303033F3E1E3E303E3F3333333F1E57
:1005E0003F3F030306060C0C18181E3F33331E3F13
:1005F00033333F1E1E3F3333333F1F031F1E00386C
:100600002F3F181818181F0F00382F3F181E1E18DC
:1006100018180000000000008200000000008C009C
:1006200000000000000000000000000000000000CA
:1006300000000000000000000000000000000000BA
:1006400000000000000000000000000000000000AA
:1006500000000A000000000000000000140000007C
:10066000000000000000000000000000000000008A
:1006700000001E00280032003C00460050005A00D6
:1006800064006E0078000000000000000000000020
:10069000000000000000000000000000000000005A
:1006A000000000000000000000000000000000004A
:1006B000000000000000000000000000000000003A
:1006C000000000000000000000000000000000002A
:1006D000000000000000000000000000000000001A
:1006E000000000000000000000000000000000000A
:1006F00000000000000000000000000000000000FA
:1007000000000000000000000000000000000000E9
:1007100000000A050A050A050A050A05000000008E
:1007200000000000000000000000000707000000BB
:1007300000000000000000000C0C060F0B0B0B0B60
:100740000B0B0F060E0E0606060606060F0F0E0F03
:10075000030303060C080F0F0F0F03060703030321
:100760000F0E030B0B0B0B0B0F0F03030F0F080EDA
:100770000F0303030F0E070F080E0F0B0B0B0F06D3
:100780000F0F03030606060C0C0C060F0D0D0E07CB
:100790000B0B0F06060F0B0B0B0F07030F0E0000C2
:1007A000000C0C00000C0C00000000000000000019
:1007B0000000000000000000000000000000000039
:1007C0000000000000000000000000000000000029
:1007D0000000000000000000000000000000000019
:1007E00000000000000000000A00000000000000FF
:1007F00000000000000000000000000000000000F9
:10080000000014001E000000280032003C004600DA
:1008100050005A0064006E00780082008C000000D6
:1008200000000000000000000000000000000000C8
:1008300000000000000000000000000000000000B8
:1008400000000000000000000000000000000000A8
:100850000000000000000000000000000000000098
:100860000000000000000000000000000000000088
:100870000000000000000000000000000000000078
:100880000000000000000000000000000000000068
:100890000000000000000000000000000000000058
:1008A000000000000000000011241FBECFEFD8E0C0
:1008B000DEBFCDBF11E0A0E0B1E0ECE3FFE502C098
:1008C00005900D92AA38B107D9F723E0AAE8B1E064
:1008D00001C01D92AF3EB207E1F70E9447210C9480
:1008E0009C2F0C94000090917C00907F8F70892B3E
:1008F00080937C0080917A0086FDFCCF80917A0005
:10090000806480937A0080917A0086FDFCCF80918C
:1009100078009091790093700895FC012081FAE0AD
:100920002F9F900111242053384FFC018181280F03
:10093000311DC90183709927892B39F4C90164E6F7
:1009400070E00E94C92D892B61F4C90160E971E052
:100950000E94C92D9C0191E0232B09F090E0892F82
:10096000089581E00895CF93DF93CDB7DEB72C973C
:100970000FB6F894DEBF0FBECDBF2CE0E9E1F1E089
:10098000DE01119601900D922A95E1F7FC0122817A
:10099000223021F40E948D04845E0AC08FEF820F02
:1009A0008B3028F4FE01E20FF11D808101C080E050
:1009B0002C960FB6F894DEBF0FBECDBFDF91CF915E
:1009C00008951F93CF93DF93EC011B810E94B30422
:1009D0001817E0F091E09B838A818C3098F09A831D
:1009E0008981893058F019828881893018F01882FD
:1009F00080EF0FC08F5F888380E70BC08F5F898394
:100A000080E307C08F5F8A8380E103C01F5F1B8381
:100A100080E0DF91CF911F910895FC01878190853F
:100A2000873E23E09207F8F01086178286818B3389
:100A3000B0F0168285818B3370F015828481873106
:100A400030F0CF0114820E94E1048F6008958F5F1F
:100A5000848387E008958F5F858383E008958F5FA7
:100A6000868381E0089501969087878380E00895CA
:100A7000CF93DF93FC01C1E087819085883E93404E
:100A800008F4C0E086818C3308F0C26085818C3325
:100A900008F0C4608481883108F0C8608281815088
:100AA0008C3008F0C061D381DD2329F0CF010E9492
:100AB000B3048D1708F4C0628C2FDF91CF91089595
:100AC000FC01808191812AE0829F900D1124428156
:100AD00023818FEF840F823010F49150445F2352B2
:100AE000290F96959695290F50E04F5F5F4F3DE097
:100AF000349FC001359F900D112465E070E00E9485
:100B0000DD2D260F822F90E0069667E070E00E94B0
:100B1000DD2D8F5F089580E090E0FC01EE0FFF1F58
:100B2000EE0FFF1FE053FE4F1082118212821382DC
:100B300001968031910589F7089580E090E09C014D
:100B4000220F331F220F331FF901E053FE4F408164
:100B5000518162817381F901E057FE4F40835183D7
:100B60006283738301968031910549F708954F920E
:100B70005F926F927F929F92AF92BF92CF92DF92DD
:100B8000EF92FF920F931F93CF93DF938431A1F0E5
:100B90008631F1F0853049F5E22FF0E0EE0FFF1FCE
:100BA000E85CFB4F25913491F901EA5DFE4FA49179
:100BB000C6E2D1E095E01FC0E22FF0E0EE0FFF1F8C
:100BC000E855F84F25913491C2E1D7E0A4E00BC07D
:100BD000E22FF0E0EE0FFF1FEE5EF94F259134910A
:100BE000CCE7D5E0A6E09AE006C0C0E0D0E0A0E007
:100BF00020E030E090E0F901EC0FFD1F912C50E077
:100C0000421B530B4C1B5D0B807F70E0B0E01197D3
:100C10006B01CA1ADB0A5D01A61AB70A991509F415
:100C20003AC0EA01CE0FDF1F9F012F5F3F4F7901CE
:100C3000811103C0F901049102C0E4910E2F10E06C
:100C400020E030E0CC0FDD1FCC0FDD1FC053DE4FA6
:100C5000488059806A807B806A177B074CF40A2C95
:100C600004C036952795179507950A94D2F708C0C2
:100C70000C2C04C0000F111F221F331F0A94D2F73F
:100C80000429152926293729088319832A833B83B8
:100C90009394F701C3CFDF91CF911F910F91FF90F4
:100CA000EF90DF90CF90BF90AF909F907F906F902C
:100CB0005F904F9008952F923F924F925F926F9264
:100CC0007F928F929F92AF92BF92CF92DF92EF92DC
:100CD000FF920F931F93CF93DF93CDB7DEB72E977D
:100CE0000FB6F894DEBF0FBECDBF4983843121F12A
:100CF000863109F438C0853009F04DC0E22FF0E0AC
:100D0000EE0FFF1FE85CFB4FA591B491BE87AD8746
:100D1000E02FF0E0EE0FFF1FE85CFB4F25913491D0
:100D2000FD01EA5DFE4F9491F901EA5DFE4FE49109
:100D300046E251E0F5E038C0E22FF0E0EE0FFF1F91
:100D4000E855F84FA590B490BE86AD86E02FF0E050
:100D5000EE0FFF1FE855F84F2591349142E157E01F
:100D6000E4E094E016C0E22FF0E0EE0FFF1FEE5E2D
:100D7000F94F259134913E872D87E02FF0E0EE0F5B
:100D8000FF1FEE5EF94F259134914CE755E0E6E008
:100D900096E0FAE009C040E050E0E0E090E020E0BA
:100DA00030E01E861D86F0E0FE1508F4CDC070E030
:100DB000F12CD7011197BC83AB836F2E712CB980B6
:100DC000AB2CB12CBE82AD826901C40ED51E53017D
:100DD0002FEFA21AB20AAE18BF08D6011196B88733
:100DE000AF83862E912CAE2FB0E0119794012A1B71
:100DF0003B0B3A8729879D01281939093C872B87A6
:100E0000E72FF0E02B813C81E217F3070CF03DC0A7
:100E10004D805E804E0E5F1EEA0DFB1D853029F46D
:100E20002F813885E20FF31F02C0EC0DFD1DE49108
:100E30000E2F10E020E030E0F201EE0FFF1FEE0F6A
:100E4000FF1FE053FE4F20803180428053808A167E
:100E50009B064CF40B8404C036952795179507958F
:100E60000A94D2F708C0098404C0000F111F221F82
:100E7000331F0A94D2F70229132924293529008324
:100E80001183228333837F5FBBCF70E083010E1910
:100E90001F093981E30EF11C807FAD85BE85A40F4B
:100EA000B51FBC83AB83AD014F5F5F4FC62ED12C06
:100EB000292F30E0215031091601221A330A590135
:100EC000AC18BD08BA82A982E72FF0E0E017F1075D
:100ED000DCF5D701AE0FBF1F811103C0E40FF51F72
:100EE00004C0AB80BC80EA0DFB1DE4914E2E512C5A
:100EF000612C712CAA0FBB1FAA0FBB1FA053BE4FA2
:100F00008D909D90AD90BC901397C216D3064CF473
:100F1000098004C076946794579447940A94D2F752
:100F200008C0022C04C0440C551C661C771C0A9493
:100F3000D2F7482859286A287B284D925D926D92F5
:100F40007C9213977F5FC0CF2E960FB6F894DEBFCA
:100F50000FBECDBFDF91CF911F910F91FF90EF900A
:100F6000DF90CF90BF90AF909F908F907F906F90C9
:100F70005F904F903F902F900895CF93DF9300D0D4
:100F800000D000D0CDB7DEB7FC0134813A3030F06C
:100F9000832F6AE00E94BD2D805D01C080E28983BD
:100FA0002AE0832F622F0E94BD2D905D9A83858158
:100FB0000E94BD2D805D8B83905D9C8386810E9405
:100FC000BD2D805D8D83905D9E83E6E0F1E0DE01C6
:100FD000119680E09281911106C09C912081921718
:100FE00049F0918307C09C912181921719F02083C9
:100FF0009183128241819081941719F092819F5FB1
:101000009283228130E0843018F065E070E002C005
:101010006AE070E06217730714F4128240838F5FF6
:10102000339611968630B1F626960FB6F894DEBF49
:101030000FBECDBFDF91CF9108952F923F924F9277
:101040005F926F927F928F929F92AF92BF92CF9258
:10105000DF92EF920F93CF93DF93CDB7DEB7629716
:101060000FB6F894DEBF0FBECDBF2B014091250116
:101070005091260160912701709128014D875E876C
:101080006F87788B4091290150912A0160912B0143
:1010900070912C0149875A876B877C8740912D017D
:1010A00050912E0160912F01709130014D835E832C
:1010B0006F83788740913101509132016091330103
:1010C0007091340149835A836B837C830E94BD07EE
:1010D00056FE06C02AE346E060E184E10E94B705BF
:1010E000CE0101961C0186E0C82E81E0D82E5E015B
:1010F00095E0A90EB11C3E01E9E06E0E711C4E0197
:10110000FDE08F0E911CBA8AA98AF10181E090E07E
:10111000019002C0880F991F0A94E2F71F018421F1
:101120009521892B61F0F601E28001812081F50192
:101130004081F3016081F40180810E945B06F3E04D
:10114000CF0ED11C8FEFA81AB80A9FEF691A790A3F
:10115000EFEF8E1A9E0A89899A8928163906A9F610
:1011600062960FB6F894DEBF0FBECDBFDF91CF9170
:101170000F91EF90DF90CF90BF90AF909F908F90A6
:101180007F906F905F904F903F902F9008952F9297
:101190003F924F925F926F927F928F929F92AF9207
:1011A000BF92CF92DF92EF920F93CF93DF93CDB7A1
:1011B000DEB76A970FB6F894DEBF0FBECDBF2B0126
:1011C00026E0E5E3F1E0DE01539601900D922A95C9
:1011D000E1F726E0EBE3F1E0DE011D9601900D92D0
:1011E0002A95E1F726E0E1E4F1E0DE0117960190AF
:1011F0000D922A95E1F726E0E7E4F1E0DE01119691
:1012000001900D922A95E1F70E94BD0756FE06C097
:101210002AE346E065E184E10E94B705CE0101962C
:101220001C0186E0C82E81E0D82E5E0197E0A90E51
:10123000B11C3E01EDE06E0E711C4E01F3E18F0E0C
:10124000911CBA8EA98EF10181E090E0019002C05C
:10125000880F991F0A94E2F71F0184219521892B99
:1012600061F0F601E28001812081F5014081F30106
:101270006081F40180810E945B06F3E0CF0ED11CF7
:101280008FEFA81AB80A9FEF691A790AEFEF8E1A42
:101290009E0A898D9A8D28163906A9F66A960FB688
:1012A000F894DEBF0FBECDBFDF91CF910F91EF90CD
:1012B000DF90CF90BF90AF909F908F907F906F9076
:1012C0005F904F903F902F900895EF92FF920F9371
:1012D0001F93CF93DF937C01C62F8A0157FF06C06F
:1012E0002FE240E068E185E00E94B70512FF16C0DA
:1012F000F70122812A3060F021E340E06FE185E0D0
:101300000E94B705F70122812A5D40E06CE103C02D
:10131000205D40E06DE185E00E94B70511FF20C02F
:10132000F70183818A30A8F0DAE06D2F0E94BD2D8D
:1013300020E3280F40E065E185E00E94B705F70152
:1013400083816D2F0E94BD2D20E3290F40E061E1D4
:1013500004C020E3280F40E063E185E00E94B70568
:1013600010FF76C08C2F90E0FC013197E730F1053B
:1013700008F06EC0EC5CFF4F0C94132E23E540E0A8
:101380006AE085E00E94B70525E707C02DE440E04C
:101390006CE085E00E94B7052FE640E066E085E05E
:1013A0000E94B7052EE640E062E049C024E540E037
:1013B0006AE085E00E94B70525E740E066E085E049
:1013C0000E94B70525E6EFCF27E540E06CE085E019
:1013D0000E94B70525E640E066E085E00E94B7057B
:1013E00024E6E1CF24E540E06AE085E00E94B7050D
:1013F00028E640E066E085E00E94B70525E7D3CF08
:1014000026E440E067E085E00E94B70522E740E07F
:1014100063E085E00E94B70529E640E060E00FC088
:1014200023E540E069E085E00E94B70521E640E061
:1014300065E085E00E94B70524E740E061E085E0D3
:10144000DF91CF911F910F91FF90EF900C94B70512
:10145000DF91CF911F910F91FF90EF900895EF9240
:10146000FF920F931F93CF937C018B0172FFC7C034
:10147000DC011296EC918E2F90E0FC013197EC305C
:10148000F10508F0AAC0E55CFF4F0C94132E2AE486
:1014900040E06FE185E00E94B70521E641C026E407
:1014A00040E06FE185E00E94B70525E640E06BE192
:1014B00085E00E94B70522E69DC02DE440E06FE183
:1014C00085E00E94B70521E640E069E185E00E94E1
:1014D000B70522E71BC021E440E06FE185E00E94F0
:1014E000B70520E740E06BE185E00E94B70522E701
:1014F00081C02DE440E06FE185E00E94B70521E660
:1015000040E069E185E00E94B70529E740E065E138
:1015100073C02AE440E06FE185E00E94B70525E74B
:1015200040E06BE185E00E94B7052EE663C02AE447
:1015300040E06FE185E00E94B70525E740E06BE100
:1015400085E00E94B7052CE655C021E440E06FE13C
:1015500085E00E94B70525E740E06BE185E00E9449
:10156000B70527E647C023E540E06FE185E00E942C
:10157000B70525E640E06BE185E00E94B70520E76E
:1015800039C02FE440E06FE185E00E94B70523E613
:1015900040E06BE185E00E94B70524E72BC02EE414
:1015A00040E06FE185E00E94B7052FE640E06AE188
:1015B00085E00E94B70526E740E066E11DC024E40F
:1015C00040E06FE185E00E94B70525E640E06BE171
:1015D00085E00E94B70523E60DC02DE240E06FE1F3
:1015E00085E00E94B7052DE240E06BE185E00E94B6
:1015F000B7052DE240E067E185E00E94B70511FFE5
:1016000024C0F70123812A30D0F02E3120F0C2EE21
:10161000C20F23E009C0243120F0CCEEC20F22E03B
:1016200003C0C6EFC20F21E0205D40E061E185E02C
:101630000E94B70520E32C0F40E06DE003C0205D61
:1016400040E06FE085E00E94B70517FF06C027E283
:1016500040E068E085E00E94B70514FF08C0D701AC
:101660002C91205D40E066E085E00E94B70513FF05
:101670000DC0F7012181205D40E062E085E0CF915F
:101680001F910F91FF90EF900C94B705CF911F9190
:101690000F91FF90EF9008950F931F93CF9302FF48
:1016A00074C08901C42F81115BC04436F0F06623F9
:1016B00031F02DE240E06DE185E00E94B7058C2F0E
:1016C00064E60E94BD2D20E3280F40E069E185E03B
:1016D0000E94B7052AE08C2F622F0E94BD2DC92FD2
:1016E0000E94BD2D20E3290F15C04A3080F06623EB
:1016F00031F02DE240E069E185E00E94B7058C2FD2
:101700006AE00E94BD2DC92F20E3280F03C0662385
:1017100031F02DE240E065E185E00E94B70520E36D
:101720002C0F40E061E185E00E94B7052EE240E029
:101730006DE085E00E94B705C80168EE73E00E9485
:10174000C92D20E3260F40E06BE085E00E94B7053D
:101750002FE740E066E085E00E94B70523E40DC076
:101760002DE240E06BE085E00E94B7052DE240E00D
:1017700067E085E00E94B7052DE240E063E085E088
:10178000CF911F910F910C94B705CF911F910F919D
:10179000089542FF43C1843009F482C058F4813077
:1017A00009F446C040F1823009F44AC0833009F49C
:1017B00063C00895873009F4DFC038F4853009F438
:1017C00085C0863009F4AAC00895883009F4FCC0A9
:1017D0008F3F09F023C12DE240E06FE185E00E94D8
:1017E000B7052DE240E06BE185E00E94B7052DE2F0
:1017F00040E067E110C12AE9260F40E06FE185E093
:101800000E94B70526E940E06CE185E00E94B7053B
:1018100027E940E064E185E00E94B70528E940E05F
:101820006CE085E00E94B70529E940E064E0F3C080
:1018300025E841E061E285E00E94B70527E423C086
:1018400025E841E061E285E00E94B70524E440E03C
:1018500069E185E00E94B70527E440E065E185E0A5
:101860000E94B70520E540E061E185E00E94B705F0
:1018700023E540E06DE0CFC025E841E061E285E08E
:101880000E94B70520E540E069E185E00E94B705C8
:1018900020E540E065E185E00E94B70523E513C03F
:1018A00025E841E061E285E00E94B70522E540E0DD
:1018B00069E185E00E94B70524E540E065E185E047
:1018C0000E94B7052BE440E061E1A5C025E841E0B6
:1018D00061E285E00E94B70526E440E069E185E029
:1018E0000E94B7052CE640E065E185E00E94B7055F
:1018F0002EE240E062E185E00E94B70522E540E08B
:101900006FE085E00E94B70524E540E06BE085E0EC
:101910000E94B7052BE440E067E07DC025E841E088
:1019200061E285E00E94B70524E440E069E185E0DA
:101930000E94B7052EE240E065E185E00E94B70510
:1019400022E540E062E185E00E94B70525E640E03F
:101950006EE085E00E94B70523E640E06AE085E09E
:101960000E94B7052BE640E066E085E00E94B705DF
:101970002EE240E062E04FC025E841E061E285E010
:101980000E94B7052DE440E069E185E00E94B705BB
:1019900021E640E063E185E00E94B7052EE640E0E5
:1019A0006FE085E00E94B70525E740E06BE085E049
:1019B0000E94B70521E640E067E085E00E94B70598
:1019C0002CE640E063E027C025E841E061E285E0E5
:1019D0000E94B70523E540E069E185E00E94B70574
:1019E00029E640E065E185E00E94B7052DE640E08C
:1019F00063E185E00E94B70525E740E06DE085E002
:101A00000E94B7052CE640E069E085E00E94B7053A
:101A10002EE240E066E085E00C94B7050895CF9390
:101A2000DF93D82FC62F61FF06C023E840E06BE1AB
:101A300085E00E94B705C0FF06C025E840E06BE0E6
:101A400085E00E94B705C2FF24C025E545E06FE1AF
:101A500085E00E94B70523E745E06BE185E00E9441
:101A6000B70525E645E067E185E00E94B70527E474
:101A700045E061E185E00E94B70520E545E06DE0C5
:101A800085E00E94B70523E545E069E085E00E9416
:101A9000B705C6FF0AC0D11102C026E801C027E879
:101AA0004BE061E185E00E94B705C5FF20C0DD2362
:101AB00081F029E74BE06AE085E00E94B70525E662
:101AC0004BE066E085E00E94B70523E74BE062E06B
:101AD00009C02EE64BE069E085E00E94B7052FE6DD
:101AE0004BE065E085E0DF91CF910C94B705DF9185
:101AF000CF910895CF93C82F81FF06C021E840E021
:101B00006BE185E00E94B705C0FF06C022E840E017
:101B10006BE085E00E94B705C2FF5BC023E545E0AE
:101B20006FE185E00E94B70525E645E06BE185E0C1
:101B30000E94B70524E745E067E185E00E94B7050C
:101B400024E745E063E185E00E94B70529E645E02A
:101B500060E185E00E94B7052DE645E06EE085E096
:101B60000E94B70525E645E068E085E00E94B705DC
:101B70002DE64BE06FE185E00E94B70521E64BE0E2
:101B800069E185E00E94B7052EE64BE065E185E05E
:101B90000E94B70525E74BE061E185E00E94B705AB
:101BA00021E64BE06DE085E00E94B7052CE64BE0B6
:101BB00069E085E00E94B7052CE64BE066E085E031
:101BC0000E94B70529E74BE063E085E0CF910C94D4
:101BD000B705CF910895EF92FF920F931F93CF9384
:101BE000DF93EC01F62EE22E01FF06C0242F40E029
:101BF0006BE185E00E94B70500FF06C02E2D40E096
:101C00006BE085E00E94B70512FFC5C0EA818E2F08
:101C100090E0FC013197EC30F10508F0AAC0E95BD7
:101C2000FF4F0C94132E2AE445E06FE185E00E94FB
:101C3000B70521E641C026E445E06FE185E00E945A
:101C4000B70525E645E06BE185E00E94B70522E691
:101C50009DC02DE445E06FE185E00E94B70521E6D7
:101C600045E069E185E00E94B70522E71BC021E459
:101C700045E06FE185E00E94B70520E745E06BE1B4
:101C800085E00E94B70522E781C02DE445E06FE1C1
:101C900085E00E94B70521E645E069E185E00E9404
:101CA000B70529E745E065E173C02AE445E06FE147
:101CB00085E00E94B70525E745E06BE185E00E94DD
:101CC000B7052EE663C02AE445E06FE185E00E9497
:101CD000B70525E745E06BE185E00E94B7052CE6F6
:101CE00055C021E445E06FE185E00E94B70525E796
:101CF00045E06BE185E00E94B70527E647C023E594
:101D000045E06FE185E00E94B70525E645E06BE11F
:101D100085E00E94B70520E739C02FE445E06FE178
:101D200085E00E94B70523E645E06BE185E00E946F
:101D3000B70524E72BC02EE445E06FE185E00E9463
:101D4000B7052FE645E06AE185E00E94B70526E782
:101D500045E066E11DC024E445E06FE185E00E94B6
:101D6000B70525E645E06BE185E00E94B70523E66F
:101D70000DC02DE245E06FE185E00E94B7052DE240
:101D800045E06BE185E00E94B7052DE245E067E1A3
:101D900085E00E94B70511FF1FC08B818A30A8F033
:101DA0002AE0E22E6E2D0E94BD2D20E3280F45E093
:101DB00061E185E00E94B7058B816E2D0E94BD2DEB
:101DC00020E3290F45E06DE004C020E3280F45E043
:101DD0006FE085E00E94B70517FF06C027E245E0E7
:101DE00068E085E00E94B70514FF07C02881205DE8
:101DF00045E066E085E00E94B70513FF07C0298132
:101E0000205D45E062E085E00E94B70510FF76C0E6
:101E10008F2D90E0FC013197E730F10508F06EC09E
:101E2000ED5AFF4F0C94132E23E54BE06FE185E054
:101E30000E94B70525E74BE06BE185E00E94B705FE
:101E40002EE657C02DE44BE06FE185E00E94B70518
:101E50002FE64BE069E185E00E94B7052EE61BC046
:101E600024E54BE06FE185E00E94B70525E74BE0F4
:101E70006BE185E00E94B70525E63BC027E54BE016
:101E80006FE185E00E94B70525E64BE069E185E05A
:101E90000E94B70524E64BE065E12DC024E54BE048
:101EA0006FE185E00E94B70528E64BE06BE185E035
:101EB0000E94B70525E71DC026E44BE06FE185E0F1
:101EC0000E94B70522E74BE06BE185E00E94B70571
:101ED00029E64BE068E10FC023E54BE06FE185E0C8
:101EE0000E94B70521E64BE06BE185E00E94B70553
:101EF00024E74BE067E185E00E94B70516FF06C0C6
:101F00002AE34BE068E085E00E94B70507FF1DC0AB
:101F10008C818A3098F09AE0F92E6F2D0E94BD2DA9
:101F200020E3280F4BE060E185E00E94B7058C813B
:101F30006F2D0E94BD2D20E3290F02C020E3280F42
:101F40004BE06CE085E00E94B70506FF0BC08D8179
:101F50006AE00E94BD2D20E3280F4BE066E085E09B
:101F60000E94B70505FF11C08D816AE00E94BD2D5A
:101F700020E3290F4BE062E085E0DF91CF911F91D4
:101F80000F91FF90EF900C94B705DF91CF911F91C7
:101F90000F91FF90EF9008950F931F93CF93DF93CE
:101FA000082F162FEA0141FF06C021E840E06BE14F
:101FB00085E00E94B705C0FF06C022E840E06BE064
:101FC00085E00E94B705C2FF3CC023E545E06FE114
:101FD00085E00E94B70525E645E06BE185E00E94BB
:101FE000B70524E745E067E185E00E94B70525E7EE
:101FF00045E064E185E00E94B70520E745E060E147
:1020000085E00E94B70522E54BE06FE185E00E9484
:10201000B70525E64BE06BE185E00E94B7052CE6AD
:102020004BE068E185E00E94B70521E64BE065E101
:1020300085E00E94B70529E74BE061E185E00E9459
:10204000B705D0FF07C021E3200F4BE06CE085E02F
:102050000E94B705C7FF17C028E24BE068E085E0A3
:102060000E94B70520E3210F4BE065E085E00E9468
:10207000B70529E24BE061E085E0DF91CF911F9148
:102080000F910C94B705DF91CF911F910F91089597
:10209000AF92BF92CF92DF92EF92FF920F931F9376
:1020A000CF93DF93F82EEB01E22E01FF06C0242F21
:1020B00040E06BE185E00E94B70500FF06C02E2DD1
:1020C00040E06BE085E00E94B70525E445E06FE164
:1020D00085E00E94B70510FF07C021E32F0D45E002
:1020E0006BE185E00E94B7052AE84BE065E185E0F9
:1020F0000E94B7052AE345E068E085E00E94B70545
:102100002AE34BE068E085E00E94B70507FF1DC0A9
:1021100088818A3098F04AE0F42E6F2D0E94BD2D00
:1021200020E3280F45E060E185E00E94B705888143
:102130006F2D0E94BD2D20E3290F02C020E3280F40
:1021400045E06CE085E00E94B70506FF0BC0898181
:102150006AE00E94BD2D20E3280F45E066E085E09F
:102160000E94B70505FF0BC089816AE00E94BD2D62
:1021700020E3290F45E062E085E00E94B70504FFF7
:102180001DC08A818A3098F03AE0F32E6F2D0E94AC
:10219000BD2D20E3280F4BE060E185E00E94B705EC
:1021A0008A816F2D0E94BD2D20E3290F02C020E3FC
:1021B000280F4BE06CE085E00E94B70503FF0BC0E1
:1021C0008B816AE00E94BD2D20E3280F4BE066E082
:1021D00085E00E94B70502FF0BC08B816AE00E9478
:1021E000BD2D20E3290F4BE062E085E00E94B7059A
:1021F00089E0C82ED12CF12CAA24A394B12C2FE174
:10220000E22EC5010C2C02C0880F991F0A94E2F738
:1022100080239123892BA9F08C8190E0960128508E
:10222000310902C0959587952A95E2F780FF09C08C
:102230002F2D217028574BE06E2D6F1985E00E94DD
:10224000B705F3948FEFC81AD80A87E0F812D9CFF0
:10225000DF91CF911F910F91FF90EF90DF90CF9082
:10226000BF90AF900895AF92BF92CF92DF92EF925E
:10227000FF920F931F93CF93DF93C82E7B01D42E31
:10228000E901FB010481802F90E001E010E002C031
:10229000000F111F4A95E2F70823192321FF06C0FA
:1022A00023E840E06BE185E00E94B705C0FF06C06F
:1022B00025E840E06BE085E00E94B70525E445E0B5
:1022C0006FE185E00E94B705D0FF7DC021E32C0DB2
:1022D00045E06BE185E00E94B7054D2D50E0FA0125
:1022E0003197E730F10508F06EC0E65AFF4F0C94C5
:1022F000132E23E545E062E185E00E94B70525E75E
:1023000045E06EE085E00E94B7052EE657C02DE45B
:1023100045E062E185E00E94B7052FE645E06CE00C
:1023200085E00E94B7052EE61BC024E545E062E18A
:1023300085E00E94B70525E745E06EE085E00E9454
:10234000B70525E63BC027E545E062E185E00E9450
:10235000B70525E645E06CE085E00E94B70524E678
:1023600045E068E02DC024E545E062E185E00E949B
:10237000B70528E645E06EE085E00E94B70525E751
:102380001DC026E445E062E185E00E94B70522E732
:1023900045E06EE085E00E94B70529E645E06BE088
:1023A0000FC023E545E062E185E00E94B70521E624
:1023B00045E06EE085E00E94B70524E745E06AE06D
:1023C00085E00E94B705C6FF0BC00115110511F489
:1023D00026E801C027E84BE060E185E00E94B705F0
:1023E000C5FF14C02FE64BE0012BC9F069E085E082
:1023F0000E94B70526E64BE065E085E00E94B70540
:1024000026E64BE062E085E00E94B70589E0C82E31
:10241000D12C10E0AA24A394B12C0FE108C068E0ED
:1024200085E00E94B7052EE64BE064E0ECCFC501E5
:102430000C2C02C0880F991F0A94E2F78C239D236D
:10244000892BB1F0F701848190E096012850310981
:1024500002C0959587952A95E2F780FF09C0212F44
:10246000217028574BE0602F611B85E00E94B70563
:102470001F5FFFEFCF1ADF0A1730C9F6DF91CF9148
:102480001F910F91FF90EF90DF90CF90BF90AF9092
:1024900008951F93CF93DF93C82FD62F61FF06C0F7
:1024A00023E840E06BE185E00E94B705D0FF06C05D
:1024B00025E840E06BE085E00E94B705D2FF18C038
:1024C0002BE845E06FE185E00E94B7052CE845E088
:1024D00067E185E00E94B7052DE845E06FE085E003
:1024E0000E94B7052EE845E067E085E00E94B70549
:1024F000D6FF1BC08FEF8C0F843050F490E0FC01AE
:10250000E55AFE4F2081FC01E95AFE4F108102C0BE
:1025100010E92FE84BE06FE185E00E94B705212F1D
:102520004BE067E185E00E94B705D5FF46C0C230A9
:1025300089F020F4C13031F522E31DC0C330D1F061
:10254000C43001F521E34BE06EE085E00E94B70561
:1025500020E301C025E34BE06BE085E00E94B70576
:1025600020E34BE067E085E00E94B70525E24BE001
:1025700063E01DC027E34BE06BE085E00E94B705F8
:1025800025E3EFCF21E64BE06DE085E00E94B70543
:1025900025E74BE069E085E00E94B70524E74BE0C2
:1025A00065E085E00E94B7052FE64BE062E085E03C
:1025B000DF91CF911F910C94B705DF91CF911F91BF
:1025C0000895CF93DF93D82FC62F61FF06C023E86D
:1025D00040E06BE185E00E94B705C0FF06C025E83A
:1025E00040E06BE085E00E94B705C2FF30C023E504
:1025F00045E06FE185E00E94B70521E645E06BE12B
:1026000085E00E94B70526E745E067E185E00E9486
:10261000B70525E645E063E185E00E94B70524E7BC
:1026200045E06EE085E00E94B7052FE645E06BE0EF
:1026300085E00E94B70525E445E066E085E00E945C
:10264000B70525E445E062E085E00E94B705C6FFD6
:102650000AC0D11102C026E801C027E84BE061E1C1
:1026600085E00E94B705C5FF20C0DD2381F029E782
:102670004BE06AE085E00E94B70525E64BE066E0A6
:1026800085E00E94B70523E74BE062E009C02EE633
:102690004BE069E085E00E94B7052FE64BE065E07E
:1026A00085E0DF91CF910C94B705DF91CF9108952C
:1026B000CF93DF93EC012CE440E06FE185E00E94D2
:1026C000B70529E640E06BE185E00E94B70527E603
:1026D00040E069E185E00E94B70528E640E065E159
:1026E00085E00E94B70524E740E061E185E00E94B3
:1026F000B70523E740E06DE085E00E94B70525E6D9
:1027000040E069E085E00E94B7052EE640E065E024
:1027100085E00E94B7052EE240E061E085E00E947E
:10272000B70521E44BE06FE185E00E94B70524E4A2
:102730004BE06BE185E00E94B70523E44BE067E1E5
:1027400085E00E94B705C83E83E0D80790F0CE012F
:1027500068EE73E00E94C92DCB016AE070E00E9430
:10276000C92D20E3280F46E062E184E10E94B7050D
:1027700003C0C436D10590F0CE0164E670E00E943B
:10278000C92DCB016AE070E00E94C92D20E3280F1B
:1027900046E06DE084E10E94B70503C0CA30D10570
:1027A00088F02AE030E0CE01B9010E94C92DCB01AA
:1027B000B9010E94C92D20E3280F46E068E084E1BA
:1027C0000E94B705CE016AE070E00E94C92D20E3A7
:1027D000280F46E063E084E1DF91CF910C94B705C8
:1027E000F999FECF937092BD81BDF89A80B5089596
:1027F0009C01F999FECFF8949FB39F70411102C0DC
:1028000080E201C080E0982B9FBB337032BD21BDB8
:1028100060BDFA9AF99A7894F999FECF08950F93CA
:102820001F93CF938C01C62F0E94F0138C1799F041
:1028300090E0809590952C2F30E082239323892B74
:1028400011F041E001C040E06C2FC801CF911F9111
:102850000F910C94F813CF911F910F910895FF924F
:102860000F931F93CF93DF938C01C0E0F801208179
:10287000C21708F58C2F90E030E021503109821703
:10288000930724F4FF24F394FC0E01C0F12CF8010B
:1028900023813481820F931F0E94F013D82FF801F7
:1028A000838194818F0D911D0E94F013DF5F8D1342
:1028B00003C0CF5FDBCFC0E08C2FDF91CF911F91A2
:1028C0000F91FF900895CF92DF92EF92FF920F93B6
:1028D0001F93CF93DF938C017B010E942F14F8018B
:1028E00021813281F82FF29FC001F39F900D1124B6
:1028F000F80125813681EC01C20FD31F6701CE1983
:10290000DF09F80121813281C6018E199F098217E2
:10291000930748F4CE018C0D9D1D0E94F013F60123
:1029200081936F01EECFDF91CF911F910F91FF90B7
:10293000EF90DF90CF9008958F929F92AF92BF92C9
:10294000CF92DF92EF92FF920F931F93CF93DF937B
:102950008C014B010E942F14E82EF12CF8012081EC
:1029600030E021503109E216F30614F48F5F01C004
:1029700080E0C82FD0E0F80181819281C89F50018A
:10298000C99FB00CD89FB00C112485819681A80EE8
:10299000B91E6401812C912CF801818192818816E5
:1029A000990660F4F60161916F01C4018A0D9B1DC7
:1029B0000E940F14FFEF8F1A9F0AEECF838194813C
:1029C0008E0D9F1D0E94F01361E0680FF801838156
:1029D00094818C0F9D1FDF91CF911F910F91FF90DC
:1029E000EF90DF90CF90BF90AF909F908F900C941E
:1029F0000F14FC01108211820895FC018081611185
:102A000006C011828F3F29F08F5F808308958183F4
:102A100010820895FC0181E09081913009F080E0FE
:102A20000895CF93DF93CDB7DEB72A970FB6F8940A
:102A3000DEBF0FBECDBF2AE0EDE4F1E0DE0111966E
:102A400001900D922A95E1F7262F30E0662399F048
:102A5000F9013197EE0FFF1F41E050E04C0F5D1F71
:102A6000E40FF51F408151818417950710F06150E4
:102A700012C0643081F0F9013196EE0FFF1F21E0A2
:102A800030E02C0F3D1FE20FF31F2081318128170A
:102A9000390708F06F5F862F2A960FB6F894DEBFCD
:102AA0000FBECDBFDF91CF9108950F931F9300917B
:102AB0008C0110918D0120918E0130918F01DC01EC
:102AC000CB01800F911FA21FB31F00918C011091A9
:102AD0008D0120918E0130918F01081719072A0767
:102AE0003B0798F31F910F91089515B887E084B9BB
:102AF00083E088B917B81BB88EEF8AB9089582E0D1
:102B000084BD93E095BD80936E008DE487BD18BCB5
:102B100016BC08951092800089E080938100109285
:102B2000820082E080936F008FE19EE490938900A1
:102B30008093880010928B0010928A00109285007A
:102B40001092840008951092C00088E98093C1001B
:102B500086E08093C20081E890E09093C500809366
:102B6000C400089584E08093BC001092B9001092D4
:102B7000BB008CE58093B800089510927C0087E834
:102B800080937A00EBE7F0E080818074808384E0BA
:102B900080937E0008951F920F920FB60F9211241A
:102BA0008F929F92AF92BF92CF92DF92EF92FF925D
:102BB0002F933F934F935F936F937F938F939F9345
:102BC000EF93FF9390911F0280918B01891768F416
:102BD000E0918A0184E0E89FF0011124E057FE4F64
:102BE000408151816281738103C040E050E0BA01AD
:102BF0005E9820E030E0812C912C5401A3945D98E4
:102C00008BB1837E90918A01921302C094E001C03F
:102C100090E0892B922F75016401022E04C0CC0C28
:102C2000DD1CEE1CFF1C0A94D2F7C422D522E6223A
:102C3000F722CD28CE28CF2811F4E0E001C0E8E04B
:102C40008E2B6A017B0104C0F694E794D794C79455
:102C50009A95D2F7C0FC02C090E001C090E1892BA8
:102C60008BB95D9A2F5F3F4F2031310541F65E9A57
:102C700080918A018F3049F410928A0180918B01F2
:102C80008F5F837080938B0103C08F5F80938A0175
:102C9000FF91EF919F918F917F916F915F914F91F4
:102CA0003F912F91FF90EF90DF90CF90BF90AF902A
:102CB0009F908F900F900FBE0F901F9018951F92AE
:102CC0000F920FB60F9211242F933F934F935F9360
:102CD0006F937F938F939F93AF93BF93CF93EF9314
:102CE000FF9380918C0190918D01A0918E01B09104
:102CF0008F010196A11DB11D80938C0190938D01D0
:102D0000A0938E01B0938F0180E292E00E940D05A6
:102D1000C82F80FF04C080E292E00E943805C1FF06
:102D20000DC080E292E00E9460058093320281E053
:102D300080935602809357028093580240918C01F1
:102D400050918D0160918E0170918F018091E70308
:102D50009091E803A091E903B091EA0388579C4E53
:102D6000AF4FBF4F481759076A077B0728F08FEF0F
:102D70008093340210923502FF91EF91CF91BF9171
:102D8000AF919F918F917F916F915F914F913F9103
:102D90002F910F900FBE0F901F9018951F920F92BA
:102DA0000FB60F921124CF92DF92EF92FF922F93E2
:102DB0003F934F935F936F937F938F939F93AF93C3
:102DC000BF93CF93EF93FF93C091C600C0908C0147
:102DD000D0908D01E0908E01F0908F016C2F80E1FA
:102DE00092E00E94732DC43241F4C092E703D09266
:102DF000E803E092E903F092EA03FF91EF91CF91AB
:102E0000BF91AF919F918F917F916F915F914F9102
:102E10003F912F91FF90EF90DF90CF900F900FBEDA
:102E20000F901F9018951F920F920FB60F921124BA
:102E30002F933F934F935F936F937F938F939F93C2
:102E4000AF93BF93EF93FF93CF93DF931F92CDB7D1
:102E5000DEB7198286E192E00E94642D882359F042
:102E6000BE016F5F7F4F86E192E00E94942D8981C1
:102E70000E94052D05C08091C1008F7D8093C10007
:102E80000F90DF91CF91FF91EF91BF91AF919F9103
:102E90008F917F916F915F914F913F912F910F9003
:102EA0000FBE0F901F9018952F923F924F925F92F6
:102EB0006F927F928F929F92AF92BF92CF92DF924A
:102EC000EF92FF920F931F93CF93DF9300D000D028
:102ED0001F92CDB7DEB78C017B0119821A821B824B
:102EE0001C828FEF8D83FB018081982F907E09F0EB
:102EF00086E0F801808381E0F7019181911101C0A2
:102F000080E0F80181833701680182E0882E912CEE
:102F1000A12CB12C95E0292EF3018281F601893094
:102F200010F0128234C08283312CF9E2FA9D200124
:102F3000FB9D500C1124F6018281381640F5F401F6
:102F400035E0339EE00DF11D1124EE0DFF1D818152
:102F5000898382818A8383818B8384818C83858129
:102F600081608D83CE0101960E945822D201239C5C
:102F7000A00DB11D1124A00FB11F1396FE013196B3
:102F8000822D01900D928A95E1F73394D4CFCE0132
:102F900001960E945022F6012281F9E2FA9DC001B9
:102FA000FB9D900D1124283088F4DC01229EA00D99
:102FB000B11D1124A00FB11F1396FE013196322DC1
:102FC00001900D923A95E1F72F5FEDCF3FEFA31AF5
:102FD000B30A89E2680E711CE9E2CE0ED11CF9E257
:102FE0008F0E911C33E0A316B10409F095CFF701C1
:102FF000E358FF4F8081882319F0863008F085E080
:10300000F801E358FF4F80830F900F900F900F90BF
:103010000F90DF91CF911F910F91FF90EF90DF9074
:10302000CF90BF90AF909F908F907F906F905F9068
:103030004F903F902F9008950F931F93CF93DF935E
:10304000FC012081FB012083FC012181FB01218304
:10305000EC019B018C0105581F4F4A81F901428305
:10306000DE0140E013965C911397538314965C91B4
:103070001497548315965C911597558316965C9119
:103080001697568317965C911797516057834F5F39
:1030900015963596483031F7A996275D3F4FC017F2
:1030A000D107D9F6FC01E358FF4F8081FB01E358BB
:1030B000FF4F8083DF91CF911F910F9108959091E1
:1030C000DA02953018F490931F02089580931F023E
:1030D00008950F931F93CF93DF9340913602509141
:1030E000370260913802709139024115510561052E
:1030F000710509F466C400918C0110918D01209135
:103100008E0130918F0180913A0290913B02A09103
:103110003C02B0913D02840F951FA61FB71F0817F0
:1031200019072A073B0708F44CC480918C01909141
:103130008D01A0918E01B0918F0180933A029093FE
:103140003B02A0933C02B0933D02C6B16C2F61706C
:1031500089E592E00E94FD146C2F62708BE592E08D
:103160000E94FD1480911E02982F907ED1F589E572
:1031700092E00E940A158823F1F0E0911E028E2F42
:1031800090E0FC013697ED30F10520F4EF59FF4F48
:103190000C94132E89E00DC08DE00BC081E109C0B5
:1031A00086E007C08AE005C08EE003C082E101C06E
:1031B00085E080931E028BE592E00E940A15882329
:1031C00009F4FFC38EE7EDE5F2E0ABEDB2E001906C
:1031D0000D928A95E1F780911E028093DB0280E2D6
:1031E000EEC3843409F41AC120F5843209F49EC375
:1031F00070F4813209F45BC018F48032E1F1E1C36C
:10320000823209F47FC1833209F446C3DAC38134C0
:1032100009F490C038F4853209F4ADC3803409F460
:103220006BC0CFC3823409F4A3C0833409F4D2C085
:10323000C8C3813609F4B7C160F4863409F41EC1ED
:1032400008F404C1873409F435C1803609F499C102
:10325000B8C3843609F456C238F4823609F4DCC1A6
:10326000833609F412C2ADC3853609F49CC2863692
:1032700009F4D2C2A6C389E592E00E940A15882308
:1032800031F09091DC0281E089278093DC028BE5AC
:1032900092E00E940A15882309F493C38091DC020E
:1032A000882319F0109259033BC381E288C389E552
:1032B00092E00E940A158823C1F089E0E0E2F2E082
:1032C000A9E2B2E001900D928A95E1F710922F02E7
:1032D000109231021092300289E292E00E94600561
:1032E0008093330280E480931E028BE592E00E947B
:1032F0000A158111D7CF65C389E592E00E940A15AE
:10330000882379F080912902893010F48F5F01C001
:1033100080E08093290289E292E00E946005809318
:1033200033028BE592E00E940A15882309F449C311
:1033300081E445C389E592E00E940A15882379F06B
:1033400080912A02893010F48F5F01C080E0809361
:103350002A0289E292E00E946005809333028BE5A5
:1033600092E00E940A15882309F42BC382E427C344
:1033700089E592E00E940A15882379F080912B025A
:103380008C3010F48F5F01C081E080932B0289E2C2
:1033900092E00E946005809333028BE592E00E94E8
:1033A0000A15882309F40DC3C0912C0289E292E02A
:1033B0000E94B3048C1760F489E292E00E94B30487
:1033C00080932C0289E292E00E9460058093330290
:1033D00083E4F5C289E592E00E940A158823A9F0EA
:1033E000C0912C0289E292E00E94B304C81720F435
:1033F00080912C028F5F01C081E080932C0289E2D2
:1034000092E00E946005809333028BE592E00E9477
:103410000A15882309F4D5C284E4D1C289E592E073
:103420000E940A15882349F080912D02873110F4FB
:103430008F5F01C080E080932D028BE592E00E94B7
:103440000A15882309F4BDC285E4B9C289E592E072
:103450000E940A15882349F080912E02823310F0D1
:10346000825301C0865F80932E028BE592E00E941A
:103470000A15882309F4A5C286E4A1C289E592E071
:103480000E940A15882369F020912E02822F6AE09B
:103490000E94BD2D993011F4295001C02F5F209357
:1034A0002E028BE592E00E940A15882309F489C256
:1034B00087E485C289E592E00E940A15882319F005
:1034C00081E280931E028BE592E00E940A15882318
:1034D00009F477C289E0E9E2F2E0A0E2B2E001900B
:1034E0000D928A95E1F780E292E00E946005809358
:1034F000320281E280931E0281E080935602809323
:1035000057025FC289E592E00E940A15882341F1C3
:10351000E091590339E2E39FF0011124E352FD4F9A
:10352000C081D5E019E280915903C83068F4189F32
:10353000C0011124DC9F800D911D112482529D4FEA
:103540000E945022CF5FEFCF99E2899FF0011124B2
:10355000E352FD4F108210925A0380E680931E02C0
:103560008BE592E00E940A15882309F42AC2809113
:103570005903823010F084E222C28F5F8093590396
:1035800020C289E592E00E940A15882319F082E2A0
:1035900080931E028BE592E00E940A15882309F4AD
:1035A00010C281E60CC289E592E00E940A158823C8
:1035B00051F1E091590380915A03682F70E04E2F2A
:1035C00050E039E2E39FF001112495E0899FE00D7E
:1035D000F11D1124E252FD4F2081273110F42F5F9D
:1035E00001C020E085E0869FF001879FF00D112447
:1035F00039E2349FC001359F900D1124E80FF91F67
:10360000E252FD4F20838BE592E00E940A15882349
:1036100009F4D7C182E6D3C189E592E00E940A1578
:10362000882351F1E091590380915A03282F30E00B
:103630004E2F50E099E2E99FF001112495E0899F17
:10364000E00DF11D1124E152FD4F8081823310F015
:10365000825301C0865F95E0929FF001939FF00D29
:10366000112499E2949F9001959F300D1124E20F4F
:10367000F31FE152FD4F80838BE592E00E940A1513
:10368000882309F49EC183E69AC189E592E00E94ED
:103690000A15882371F1E091590380915A03A82FEC
:1036A000B0E04E2F50E039E2E39FF001112495E0A5
:1036B000899FE00DF11D1124E152FD4F2081822FE1
:1036C0006AE00E94BD2D993011F4295001C02F5F8E
:1036D00085E08A9FF0018B9FF00D112439E2349F21
:1036E000C001359F900D1124E80FF91FE152FD4FE5
:1036F00020838BE592E00E940A15882309F461C1BA
:1037000084E65DC189E592E00E940A15882351F1A3
:10371000E091590380915A03682F70E04E2F50E0DA
:1037200039E2E39FF001112495E0899FE00DF11D3E
:103730001124E052FD4F2081283110F42F5F01C089
:1037400020E085E0869FF001879FF00D112439E28B
:10375000349FC001359F900D1124E80FF91FE052EE
:10376000FD4F20838BE592E00E940A15882309F41F
:1037700028C18091590320915A0339E2839FC001E7
:10378000112435E0239F800D911D1124825E9D4FF1
:10379000FC01EE53FF4F2081283119F4319610823D
:1037A00076C085E60CC189E592E00E940A1588235F
:1037B00051F1E091590380915A03282F30E04E2FA8
:1037C00050E099E2E99FF001112495E0899FE00D16
:1037D000F11D1124EF51FD4F8081823310F082538F
:1037E00001C0865F95E0929FF001939FF00D112438
:1037F00099E2949F9001959F300D1124E20FF31FE1
:10380000EF51FD4F80838BE592E00E940A158823DB
:1038100009F4D7C086E6D3C089E592E00E940A1574
:10382000882371F1E091590380915A03A82FB0E0E9
:103830004E2F50E039E2E39FF001112495E0899F7B
:10384000E00DF11D1124EF51FD4F2081822F6AE020
:103850000E94BD2D993011F4295001C02F5F85E0E1
:103860008A9FF0018B9FF00D112439E2349FC00133
:10387000359F900D1124E80FF91FEF51FD4F208364
:103880008BE592E00E940A15882309F49AC081E032
:1038900080935B0383E293C089E592E00E940A155E
:1038A0008823F9F02091590380915A0390E0019602
:1038B00035E0389FF001399FF00D112439E2239F44
:1038C000E00DF11D1124E352FD4F81E090E00090E6
:1038D0005B0302C0880F991F0A94E2F79081892741
:1038E00080838BE592E00E940A15882309F469C061
:1038F00080915B038730B1F4E091590389E2E89F3E
:10390000F0011124E352FD4F80818F5F8083883066
:1039100038F480915A038F5F80935A0380E64FC03A
:1039200082E24DC08F5F80935B034BC089E592E0DC
:103930000E940A15882349F080915803853010F4BD
:103940008F5F01C081E0809358038BE592E00E9475
:103950000A158823B1F18EE7EBEDF2E0ADE5B2E0B8
:1039600001900D928A95E1F781E0809357021092C1
:103970005C0385E224C089E592E00E940A15882351
:1039800031F090915C0381E0892780935C038BE5A3
:1039900092E00E940A158823A1F080915C0388239D
:1039A00061F06DE573E08BED92E00E941C186DE50F
:1039B00073E08FE691E00E949C1480915D028093F9
:1039C0001E02DF91CF911F910F9108950F931F93C6
:1039D00040913E0250913F0260914002709141023D
:1039E0004115510561057105B1F100918C011091EE
:1039F0008D0120918E0130918F0180914202909132
:103A00004302A0914402B0914502840F951FA61F66
:103A1000B71F081719072A073B07E8F080918C01A8
:103A200090918D01A0918E01B0918F0180934202FF
:103A300090934302A0934402B093450240E062EEAB
:103A400073E08EED93E00E941C2C91E0811101C087
:103A500090E09093DD031F910F9108950F931F93B2
:103A6000409146025091470260914802709149028C
:103A7000411551056105710509F470C100918C0172
:103A800010918D0120918E0130918F0180914A0219
:103A900090914B02A0914C02B0914D02840F951F62
:103AA000A61FB71F081719072A073B0708F456C1B6
:103AB00080918C0190918D01A0918E01B0918F0128
:103AC00080934A0290934B02A0934C02B0934D0214
:103AD00000918C0110918D0120918E0130918F0108
:103AE00043E036952795179507954A95D1F70170CC
:103AF00010E01195019511090E948B0580911E021D
:103B0000982F907E903409F45CC0903609F48BC0F5
:103B10009111B0C0837E813049F0823069F46FEF3B
:103B20007FEF80E292E00E94C70806C06FEF7FEF50
:103B300080E292E00E941D0880911E028C7F8830F6
:103B400051F160F4843009F000C14FEF5FEF6091F4
:103B5000320280E292E00E946509F7C08C3011F1D8
:103B6000803109F0F2C080918C0190918D01A0917B
:103B70008E01B0918F0125E0B695A7959795879511
:103B80002A95D1F7682F67704FEF5FEF809134026D
:103B90000E94C90BDAC06FEF7FEF80E292E00E94D3
:103BA0002F0AD3C02091E0033091E1030FEF1FEF04
:103BB0004091DF036091DE038091DD030E944C0B96
:103BC000C4C0482F50E0FA01E054F109E830F10593
:103BD000E0F4E259FF4F0C94132E0F6F1F6EB9C023
:103BE0000F6F176FB6C00F6F1B6FB3C00F6F1D6FD6
:103BF000B0C00F671F6FADC00F6B1F6FAAC00F6DF6
:103C00001F6FA7C00F61106E05C00FEF1FEF873445
:103C100009F09FC044E825E86091330289E292E010
:103C20000E94EB0D92C0482F50E0FA01E056F109D6
:103C3000E730F105C8F4EA58FF4F0C94132E0F6FCC
:103C40001E6F70C00F671F6F86C00F6B1F6F83C022
:103C50000F6D1F6F80C00F6E1F6F7DC0076F1F6FCE
:103C60007AC00B6F1F6F77C00FEF1FEF803609F41C
:103C700059C071C0833279F170F48132C9F0E8F42F
:103C8000803209F062C0B8016F6D7F6F8091DC02F5
:103C90000E940F0D5AC08532E9F1A0F1803E09F073
:103CA00054C080911C0290911D020E9458134DC077
:103CB0008FEF9FEF0E947A0D48C08091590349E22F
:103CC000849FF0011124E352FD4F4FEF5FEF6081BD
:103CD0000E94CC0F3AC080915A0398012F6D3F6F1C
:103CE0009091590349E2949FB001112495E0899F76
:103CF000600D711D112462527D4F40915B030E9443
:103D0000331123C0B8016F6D7F6F809158030E94FB
:103D100049121BC0B8016F6D7F6F80915C030E94D8
:103D2000E11213C040E821E880915A0360915903E1
:103D300099E2699FB001112495E0899F600D711D82
:103D4000112462527D4F0E9448101F910F910C94D4
:103D50009D0543E860CF43E825E8E6CF1F910F912A
:103D600008950F931F93CF9340914E0250914F02AD
:103D70006091500270915102411551056105710524
:103D8000C9F100918C0110918D0120918E0130912B
:103D90008F018091520290915302A0915402B091F0
:103DA0005502840F951FA61FB71F081719072A076A
:103DB0003B0700F180918C0190918D01A0918E01C3
:103DC000B0918F018093520290935302A0935402BA
:103DD000B093550282E00E94730490931D02809379
:103DE0001C02609118010E941115C82F0E945F18D3
:103DF000C0931801CF911F910F91089580915602A1
:103E0000882341F0109256026091320280E292E0E3
:103E10000C94B02A08954F925F926F927F928F9286
:103E20009F92AF92BF92CF92DF92EF92FF920F9349
:103E30001F93CF93DF9380915702882309F443C0E7
:103E40001092570260902402509025024090320256
:103E50000EE112E0E12CF12CC0E080E090E0D0E037
:103E60007E2C5801E1E4AE0EB11C98012E51324077
:103E70006901F5012081D21770F0FFEFEF1AFF0AF8
:103E8000075D1F4F23E0E216F10439F785B1887F03
:103E9000C82BC5B918C04C0135E0830E911CD83031
:103EA00061F38C0D9D1D242D452D662D805A9D4F4F
:103EB0000E948A22072C01C0880F0A94EAF7C82BB7
:103EC000DF5FC401D6CFDF91CF911F910F91FF909B
:103ED000EF90DF90CF90BF90AF909F908F907F90AA
:103EE0006F905F904F900895CF93809158028823F0
:103EF00009F43DC11092580264E486E192E00E9408
:103F0000732D60912002605D86E192E00E94732D26
:103F100060912102605D86E192E00E94732D6DE266
:103F200086E192E00E94732D80912202CAE06C2FFC
:103F30000E94BD2D60E3680F86E192E00E94732D20
:103F4000809122026C2F0E94BD2D60E3690F86E1F3
:103F500092E00E94732D6DE286E192E00E94732D43
:103F6000809123026C2F0E94BD2D60E3680F86E1D3
:103F700092E00E94732D809123026C2F0E94BD2D30
:103F800060E3690F86E192E00E94732D6DE086E1A7
:103F900092E00E94732D6AE086E192E00E94732D08
:103FA00064E586E192E00E94732D809124026C2FDB
:103FB0000E94BD2D60E3680F86E192E00E94732DA0
:103FC000809124026C2F0E94BD2D60E3690F86E171
:103FD00092E00E94732D6AE386E192E00E94732DC5
:103FE000809125026C2F0E94BD2D60E3680F86E151
:103FF00092E00E94732D809125026C2F0E94BD2DAE
:1040000060E3690F86E192E00E94732D6AE386E126
:1040100092E00E94732D809126026C2F0E94BD2D8C
:1040200060E3680F86E192E00E94732D8091260282
:104030006C2F0E94BD2D60E3690F86E192E00E9423
:10404000732D6DE086E192E00E94732D6AE086E1B7
:1040500092E00E94732D61E486E192E00E94732D4C
:104060008091DD03811151C08091DE03811102C076
:104070006BE201C06DE286E192E00E94732D8091B7
:10408000DF0364E60E94BD2D60E3680F86E192E0E5
:104090000E94732D8091DF03CAE06C2F0E94BD2D1A
:1040A0000E94BD2D60E3690F86E192E00E94732DAE
:1040B0008091DF036C2F0E94BD2D60E3690F86E1C4
:1040C00092E00E94732D6EE286E192E00E94732DD1
:1040D0008091E0039091E10368EE73E00E94C92DA6
:1040E000605D86E192E00E94732D8091E0039091E3
:1040F000E10364E670E00E94C92DCB016AE070E044
:104100000E94C92D60E3680F1FC060E286E192E063
:104110000E94732D68E786E192E00E94732D68E7A4
:1041200086E192E00E94732D68E786E192E00E94AA
:10413000732D6EE286E192E00E94732D68E786E1BE
:1041400092E00E94732D68E786E192E00E94732D51
:104150006DE086E192E00E94732D6AE086E192E0D4
:104160000E94732D8091C10080628093C100CF9125
:104170000895FF920F931F93CF93DF93CDB7DEB7D0
:10418000E7970FB6F894DEBF0FBECDBFFF24F394C0
:10419000BE01695C7F4F80E192E00E94942D811105
:1041A0006AC08FA9843221F483EE93E00E94342DFB
:1041B0006FA983EE93E00E94372D8FA98A3041F7D3
:1041C0000091E5031091E60347E050E06FE571E0F0
:1041D000C8010E948B2F892BA1F44091E40350E089
:1041E00047505109B801695F7F4FCE0101960E9487
:1041F0001823811106C08C89809334028D898093A5
:1042000035020091E5031091E60347E050E067E6D0
:1042100071E0C8010E948B2F892B41F54091E40386
:1042200050E047505109B801695F7F4FCE018C962D
:104230000E94982881111AC080915E028823B1F0F3
:10424000809134028150823088F489E0FE01BC966E
:10425000A0E2B2E001900D928A95E1F780E292E04F
:104260000E94600580933202F092570283EE93E041
:104270000E94342D8DCFE7960FB6F894DEBF0FBEA7
:10428000CDBFDF91CF911F910F91FF900895CF93F4
:10429000DF93CDB7DEB72A970FB6F894DEBF0FBE17
:1042A000CDBF10928C0110928D0110928E01109250
:1042B0008F011092E7031092E8031092E903109225
:1042C000EA0384E190E0A0E0B0E0809336029093AE
:1042D0003702A0933802B093390210923A0210923A
:1042E0003B0210923C0210923D0248E552E060E031
:1042F00070E040933E0250933F02609340027093FF
:104300004102109242021092430210924402109213
:1043100045028093460290934702A0934802B093CF
:10432000490210924A0210924B0210924C021092D3
:104330004D0288EC90E0A0E0B0E080934E029093B4
:104340004F02A0935002B093510210925202109269
:10435000530210925402109255021092560210927B
:1043600057021092580289E592E00E94F9148BE5F9
:1043700092E00E94F91460E270E080E192E00E9415
:104380005C2D60E270E086E192E00E945C2D60ECC2
:1043900070E083EE93E00E94282D8FEF809334022B
:1043A000109235021FBA0E9475150E947F150E9457
:1043B0008A150E94A3150E94B2150E94BD1578941B
:1043C0006DE573E08FE691E00E9463146DE573E0A4
:1043D0008DE592E00E94541780915D0280931E0249
:1043E00081E08093DD031092DE031092DF031092D0
:1043F000E1031092E0031092E20380E00E94FD2BA3
:104400000AE0BE01665F7F4FCE0101960E94452BF8
:10441000CE0101960E943805811111C089E0FE018C
:104420003196A0E2B2E001900D928A95E1F780E228
:1044300092E00E9460058093320211E001C010E01A
:1044400062E070E080E090E00E945515015019F0A4
:104450001123B9F211C011110FC089E0E6E7F1E0B4
:10446000A0E2B2E001900D928A95E1F786E791E033
:104470000E9460058093320281E0809357020E947F
:1044800069180E94E61C0E942E1D0E94B11E0E9407
:10449000FE1E0E940B1F0E94741F0E94B920EFCFC6
:1044A000FC0110821182128213828FEF848308959F
:1044B000CF93DF93EC018881883148F489818C3374
:1044C00030F48A81893118F48B818C3318F0CE0155
:1044D0000E9450222A818B8190E03CE3239F800D33
:1044E000911D1124813A55E095075CF4488129819A
:1044F00030E05CE3459F200D311D112482179307A6
:1045000018F488E18A831B828C8181608C83DF911F
:10451000CF910895CF93DC01CC911196EC91119736
:104520001296FC91129713967C91139714968C9186
:1045300090E0DC0102C0B595A7952A95E2F7CD0180
:1045400081709927A0FF20C050E0BCE36B9F400D15
:10455000511D11248E2F90E02CE3C29F800D911DE0
:1045600011244817590770F0872F90E0ACE3FA9FA9
:10457000800D911D112431E04817590708F030E0F3
:10458000832F02C080E090E08170CF910895FC01FC
:10459000680F791F81E0E617F70749F0219130E0B5
:1045A000205331092A303105B0F380E0F4CF08956B
:1045B000FF920F931F93CF93DF93EC018C01060FB3
:1045C000171FFF24F394C017D10741F0899190E0A1
:1045D0000E94782F892BB9F7F12CF5CF8F2DDF9121
:1045E000CF911F910F91FF900895FC01AF01481BDF
:1045F000590B2191222331F030E0205331092A3028
:104600003105A0F3CA010895982F80ED890F8A30F3
:1046100070F08FEB890F863010F489EC05C08FE9BC
:10462000890F863018F489EA890F089580E008958B
:104630002F923F924F925F926F927F928F929F92B2
:10464000AF92BF92CF92DF92EF92FF920F931F93A0
:10465000CF93DF93CDB7DEB7E6970FB6F894DEBF02
:104660000FBECDBF2C016C877D872C853D85240F27
:10467000351F3DAB2CAB18A63AE73B8F00E01FA2DD
:1046800011E0CE0101967C012CA93DA98C859D8568
:104690002817390709F417C2FC012191FD87EC871F
:1046A0002E872A3009F40FC29E859C3229F09A3257
:1046B00019F09D3009F0F8C1F701E00FF11D1082EB
:1046C000EFA18E2F90E08F30910508F0E8C1FC013A
:1046D000E358FF4F0C94132E112309F4E0C1063068
:1046E00008F4DCC166E070E0C7010E94C722182F01
:1046F000882309F4D4C189810E940423182F8A8158
:104700000E940423FAE01F9F800D11248AAB8B8145
:104710000E940423182F8C810E9404232AE0129FF8
:10472000800D112488AB8D810E940423182F8E8167
:104730000E9404233AE0139F800D11248FA74AA9F9
:10474000483138F488A98C3320F481E09FA59C334C
:1047500008F080E0182F117080FF6EC1063009F458
:104760006BC18F818E3209F067C1CE0108960E941D
:10477000F52245E8A42E41E0B42E4701188E1F8A89
:104780006C01DD24C4018E199F093FEF831A930A3F
:104790008C159D0508F083C1F40186810E940423D5
:1047A000F501329122915F01F82FF29FC001F39F32
:1047B000900D11242F89388D280F391F388F2F8B9A
:1047C000E1CF112309F46BC18FEF800F853008F41E
:1047D00065C1002309F433C1C7010E94F522863068
:1047E00008F4E1C11A8A198A1CA21BA257C111231D
:1047F00009F455C1023008F051C1002309F424C165
:1048000089818DA74CC1112309F449C18FEF800F15
:10481000853008F443C1002309F419C1C7010E947F
:10482000F522863008F42EC2188A1F8618A21F8E21
:1048300035C1112309F433C1023008F02FC1002320
:1048400009F40AC1898189A72AC1112309F427C162
:10485000013009F023C18981282F30E0205331092C
:104860002A30310508F01AC10E9404238EAB17C10B
:10487000112309F414C1043008F010C1002309F415
:10488000EEC0C7010E94F5222FEF280F233008F455
:1048900068C21E8E03C1112309F401C10B3008F058
:1048A000FDC0002309F4DDC0C7010E94F522863057
:1048B00008F47AC2212C312C1D8E1C8EEFC01123DE
:1048C00009F4EDC00B3008F0E9C0002309F4CEC0B4
:1048D0008981282F30E02053310911E02A30310539
:1048E00018F08D3209F010E0772473948D3209F0BE
:1048F000712C7EA6C701870D911D0E94F5229C0197
:1049000010FF03C091E0263008F090E0192F1170DD
:1049100090FDB5C21A8E198E1DA2C1C0112309F4D3
:10492000BEC0023008F0BAC0002309F4A4C08981D7
:104930008BABB5C0112309F4B2C00B3008F0AEC088
:10494000002309F49BC08981282F30E020533109CE
:1049500011E02A30310518F08D3209F010E077248B
:1049600073948D3209F0712C79AAC701870D911DBE
:104970000E94F5229C0110FF03C091E0263008F050
:1049800090E0192F117090FDDFC21E8A1D8A1EA2B1
:1049900086C0112309F483C0023008F07FC00023D1
:1049A00009F471C089818CA77AC0112309F477C0FA
:1049B0000B3008F073C0002309F468C0C7010E94DF
:1049C000F522863008F425C31C8A1B8A1AA219A274
:1049D00065C0112309F463C011E0902F9B7F09F09B
:1049E00010E0117009F45BC0002309F454C064E0C6
:1049F00070E0C7010E94D822182F811179C34FC0DF
:104A0000112309F44CC0023009F048C062E070E0A4
:104A1000C7010E94D822182F882309F440C0898139
:104A20000E940423D82E8A810E94042390E1D99EFB
:104A3000800D112488A733C0188E1F8A30C01A8AAF
:104A4000198A1CA21BA22BC0EEE4EDA728C0188A6D
:104A50001F8618A21F8E23C0F5E4F9A720C01E8E62
:104A60001EC0212C312C1D8E1C8E19C01A8E198E41
:104A70001DA21EA614C02DE42BAB11C01E8A1D8AD8
:104A80001EA219AA0CC03DE43CA709C01C8A1B8ABF
:104A90001AA219A204C01BA61AA601C010E04FA1B9
:104AA0004F5F4FA300E006C0F701E00FF11D8E85B8
:104AB00080830F5F9FA19E3008F0E6CDEB8DFE85D1
:104AC000EF27EB8FE1CD112309F452C03B8D48A5B0
:104AD00034134DC02AA9F201248338A935834FA588
:104AE00046838F89988D908787839DA591872BA179
:104AF0003CA13387228789899A899587848799A5DC
:104B000096872F8D38A1308B27878F859889928B38
:104B1000818B9EA9938B2E8D248B8C8D9D8D968B56
:104B2000858B308E278A29A13AA1328F218F8B89DC
:104B30009C89948F838F9EA5958F2DA1268F898D1B
:104B40009A8D90A3878F9BA991A329A922A33EA107
:104B500033A38D899E8995A384A39CA596A32AA59A
:104B60003BA530A727A33B8D31A732A701C010E09A
:104B700081E08127E6960FB6F894DEBF0FBECDBF69
:104B8000DF91CF911F910F91FF90EF90DF90CF9029
:104B9000BF90AF909F908F907F906F905F904F905D
:104BA0003F902F9008956C01DD24C601880F991F56
:104BB000FC01E158FE4F5F01470136011CA21BA218
:104BC000882D8E1931E0631A710842E0A41AB108E9
:104BD0006C147D04A8F4F40181914F010E94042318
:104BE000F50120813181F82FF29FC001F39F900DD4
:104BF00011242BA13CA1280F391F3CA32BA3E0CFEC
:104C0000F701E80FF11D90819E32C9F57724739466
:104C1000780EC701870D911D0E94F52237E8A32E5B
:104C200031E0B32E1A8A198A812C912C6C01DD2473
:104C30008C149D0408F033CF44E08416910409F4E9
:104C40002ECF66246394670CF701E70DF11D808178
:104C50000E940423F501329122915F01F82FF29F07
:104C6000C001F39F900D112429893A89280F391F1B
:104C70003A8B298B3FEF831A930A762CD9CF1A8A65
:104C8000198A0DCF6C01DD24C601880F991F9C0184
:104C900021583E4F59014701360118A21F8E882D19
:104CA0008E1931E0631A710842E0A41AB1086C143D
:104CB0007D04A8F4F40181914F010E940423F501C1
:104CC00020813181F82FF29FC001F39F900D1124B4
:104CD0002F8D38A1280F391F38A32F8FE0CFF70170
:104CE000E80FF11D90819E32C9F577247394780EF8
:104CF000C701870D911D0E94F52227E8A22E21E011
:104D0000B22E188A1F86812C912C6C01DD248C1404
:104D10009D0408F0C4CE44E08416910409F4BFCE8B
:104D200066246394670CF701E70DF11D80810E94F2
:104D30000423F501329122915F01F82FF29FC00107
:104D4000F39F900D11242F853889280F391F388B38
:104D50002F873FEF831A930A762CD9CF188A1F86A4
:104D60009ECE6C01DD244701C601880F991FFC010E
:104D7000E158FE4F5F0136011E8E21E0621A710874
:104D800032E0A31AB1086C147D0408F088CEF40157
:104D900081914F010E940423F5019081FE8D899F2E
:104DA000F00D1124FE8FE9CF6C01DD24C601880FC0
:104DB000991F9C0121583E4F5901470136011D8E14
:104DC0001C8E882D8E1931E0631A710842E0A41AF6
:104DD000B1086C147D04A8F4F40181914F010E9484
:104DE0000423F50120813181F82FF29FC001F39F48
:104DF000900D11242C8D3D8D280F391F3D8F2C8F48
:104E0000E0CFF701E80FF11D90819E32A9F57724DC
:104E10007394780EC701870D911D0E94F52207E853
:104E2000A02E01E0B02E212C312C812C912C6C0174
:104E3000DD248C149D0408F032CE34E083169104F6
:104E400009F42DCE66246394670CF701E70DF11D7C
:104E500080810E940423F501329122915F01F82F95
:104E6000F29FC001F39F900D1124280E391E2FEFE1
:104E7000821A920A762CDDCF212C312C10CE6901BA
:104E8000DD24C601880F991FFC01E158FE4F5F0128
:104E900046011DA221E0821A910832E0A31AB1084E
:104EA000872D90E08C149D0478F47394F701E80F3B
:104EB000F91F80810E940423F5019081FDA1899F43
:104EC000F00D1124FDA3E6CFF701E80FF91F808153
:104ED0008E32B9F57394C701870D911D0E94F5229A
:104EE000B7E8AB2EB1E0BB2E1A8E198E812C912C17
:104EF0006C01DD248C149D0408F0D1CD44E08416AF
:104F0000910409F4CCCD66246394670CF701E70D96
:104F1000F11D80810E940423F501329122915F01ED
:104F2000F82FF29FC001F39F900D1124298D3A8D27
:104F3000280F391F3A8F298F3FEF831A930A762C57
:104F4000D9CF1A8E198EABCD6901DD24C601880F29
:104F5000991F9C0121583E4F590146011EA221E094
:104F6000821A910832E0A31AB108872D90E08C14C0
:104F70009D0478F47394F701E80FF91F80810E9473
:104F80000423F5019081FEA1899FF00D1124FEA359
:104F9000E6CFF701E80FF91F80818E32B9F57394DF
:104FA000C701870D911D0E94F522A7E8AA2EA1E056
:104FB000BA2E1E8A1D8A812C912C6C01DD248C1442
:104FC0009D0408F06CCD44E08416910409F467CD8B
:104FD00066246394670CF701E70DF11D80810E9440
:104FE0000423F501329122915F01F82FF29FC00155
:104FF000F39F900D11242D893E89280F391F3E8B78
:105000002D8B3FEF831A930A762CD9CF1E8A1D8AE7
:1050100046CD6C01DD24C601880F991FFC01E158C3
:10502000FE4F5F01470136011AA219A2882D8E1981
:1050300031E0631A710842E0A41AB1086C147D04CF
:10504000A8F4F40181914F010E940423F50120810D
:105050003181F82FF29FC001F39F900D112429A1F7
:105060003AA1280F391F3AA329A3E0CFF701E80F8F
:10507000F11D90819E32C9F577247394780EC70193
:10508000870D911D0E94F522F7E8AF2EF1E0BF2EAB
:105090001C8A1B8A812C912C6C01DD248C149D04AC
:1050A00008F0FDCC44E08416910409F4F8CC6624A1
:1050B0006394670CF701E70DF11D80810E940423C2
:1050C000F501329122915F01F82FF29FC001F39F09
:1050D000900D11242B893C89280F391F3C8B2B8B79
:1050E0003FEF831A930A762CD9CF1C8A1B8AD7CC20
:1050F00089810E940423C82E8A810E940423D12C16
:10510000DC2CCC24D29490EFD922D82A8B810E9417
:105110000423B82E8C810E940423C82AF0E1BF9E8C
:10512000C00111249601282B392B3BA72AA7B7CC05
:105130003F924F925F926F927F928F929F92AF9227
:10514000BF92CF92DF92EF92FF920F931F93CF9374
:10515000DF93CDB7DEB76C970FB6F894DEBF0FBE06
:10516000CDBF4C016B019B01240F351F3A8F298F56
:10517000412C24E6522EB12C312C11E0CE010196A7
:105180007C01898D9A8DC816D90609F4A0C1F60153
:1051900001916F010A3009F49AC18B2D90E00C3215
:1051A00029F00A3219F00D3009F086C1F701E80F35
:1051B000F91F1082832D90E08730910508F079C1A6
:1051C000FC01E457FF4F0C94132E112309F471C115
:1051D00095E09B1508F06CC166E070E0C7010E9485
:1051E000C722182F882309F464C189810E940423EF
:1051F000182F8A810E940423A82EEAE01E9FA00C8B
:105200001124A88A8B810E940423182F8C810E946C
:105210000423FAE01F9F800D1124182F898B8D81A4
:105220000E940423782E8E810E940423982F2AE066
:10523000729E900D11249A8B1C8A1B8A37E13A15B5
:1052400028F01C3318F481E09C3308F080E0182F1C
:10525000117080FF2EC146E0B41609F42AC18F8177
:105260008E3209F026C1CE0108960E94F522E5E8AB
:10527000F1E0F88FEF8B5701612C712C9C013327E3
:105280003C8F2B8FC5018E199F092FEFA21AB20AEE
:10529000EB8DFC8D8E179F0798F4F50186810E9497
:1052A0000423EF89F88D32912291F88FEF8BF82F3C
:1052B000F29FC001F39F900D1124680E791EE2CF7A
:1052C0007C8A6B8AF6C0112309F4F3C0F2E0BF12A6
:1052D000EFC062E070E0C7010E94C722182F882348
:1052E00009F4E7C089810E940423B82E8A810E94B4
:1052F00004232AE0B29E800D11248F87DAC0112387
:1053000009F4D7C032E0B312D3C062E070E0C70145
:105310000E94C722182F882309F4CBC089810E94DC
:105320000423182F8A810E9404234AE0149F800DD1
:1053300011248E87815011E08C3008F4BAC0B8C0B7
:10534000112309F4B6C084E0B812B2C064E070E082
:10535000C7010E94C722182F882309F4AAC08B8195
:105360000E940423182F8C878C810E9404238D8730
:105370001A3060F48A3050F4BF84BB2039F0CE017B
:105380000C960E94B30411E08B1508F410E0117024
:1053900090C0112309F48DC081E0BB2029F09EEF5D
:1053A0009B0D923008F080E0182F117080FF81C0B3
:1053B000BB2009F47EC08981282F30E020533109B9
:1053C00011E02A30310518F08D3209F010E0AA24DE
:1053D000A394B12C8D3211F0A12CB12CC7018A0DF0
:1053E0009B1D0E94F52210FF06C091E0823009F05B
:1053F00090E0892F01C080E0182F117080FD41C01E
:1054000058C0112309F455C011E09B2D9D7F09F070
:1054100010E0117009F44DC0BB2009F44AC062E0ED
:1054200070E0C7010E94C722182F882309F441C0E9
:1054300089810E940423182F8A810E9404239AE004
:10544000199F800D112411E08C3398F131C0112384
:1054500081F1E2E0BE122CC062E070E0C7010E9460
:10546000D822182F882329F189810E940423B82E7D
:105470008A810E940423482EF0E1BF9E400C112433
:1054800018C0F701EA0DFB1D80810E940423182F2C
:10549000E2E0F0E0EC0FFD1FEA0DFB1D80810E94B1
:1054A0000423FAE01F9F800D112411E08E3008F0D4
:1054B00010E03394B12C05C0F701E80FF91F008309
:1054C000B39425E0231508F45CCE50265ACE5D8AAD
:1054D0004E8A112331F1541411F010E022C0898951
:1054E000282F30E02C333105CCF18C53898B2AE006
:1054F0008889422F50E0480F511D483151055CF119
:1055000098EE980F892F820F888BCE010C960E94FF
:10551000E1048BE0FE013C96D40101900D928A9546
:10552000E1F781E081276C960FB6F894DEBF0FBEDD
:10553000CDBFDF91CF911F910F91FF90EF90DF9042
:10554000CF90BF90AF909F908F907F906F905F9023
:105550004F903F900895820F888BDBCF29E0C8CF12
:10556000CF92DF92EF92FF921F93CF93DF93CDB74D
:10557000DEB728970FB6F894DEBF0FBECDBFFC0193
:10558000362F86812AE0622F0E94BD2D492F0E946E
:10559000BD2D50E1959FC0011124842B8F77898305
:1055A00085810E94BD2D492F0E94BD2D50E1959F00
:1055B000C0011124842B8F778A8384810E94BD2DA2
:1055C000492F0E94BD2D50E1959FC0011124842BCD
:1055D0008F738B8337703C8383810E94BD2D392F5D
:1055E0000E94BD2D40E1949FC0011124832B8F7335
:1055F0008D8382810E94BD2D392F0E94BD2D50E1E7
:10560000959FC0011124832B8F718E83808120E1AF
:10561000829FC00111249181892B8F8380E188872B
:105620000E94AD2C81111FC080ED0E94C12C811100
:105630001AC00E94D92C811116C0AE014F5F5F4F76
:105640007A016E0159E0C50ED11CF70181917F01ED
:105650000E94D92C182F811106C0EC14FD04A9F763
:105660000E94BD2C03C00E94BD2C11E0812F289602
:105670000FB6F894DEBF0FBECDBFDF91CF911F9163
:10568000FF90EF90DF90CF900895AF92BF92CF92AE
:10569000DF92EF92FF920F931F93CF93DF93CDB7DB
:1056A000DEB727970FB6F894DEBF0FBECDBF8C01D3
:1056B0007B010E94AD2C81118AC080ED0E94C12C1B
:1056C000811185C00E94D92C811181C00E94AD2C0E
:1056D00081117DC081ED0E94C12C811178C09E0195
:1056E0002F5F3F4F69015E0137E0A30EB11C61E0FF
:1056F000C6010E94E92C81116AC07FEFC71AD70A40
:10570000CA14DB04A1F760E0C6010E94E92CD82E80
:1057100081115DC00E94BD2C8981582F56955695E8
:1057200056955E70952F990F990F590F8F70580FDE
:105730008A81982F92959F708F70482FEAE09E9FE4
:10574000400D11248B81282F2F7086FF0DC084FB04
:10575000992790F9990F392F330F330F930F920F29
:1057600085FF0CC0945F0AC08695869586958670E5
:10577000982F990F990F890F982F920F6C818D8117
:105780002E813F81732F72957F70F80170833F7077
:105790003183322F32953F702F70FAE03F9F200DFA
:1057A0001124F8012283282F22952F708F70FAE0A0
:1057B0002F9F800D1124F8018383948345835683A2
:1057C00084EF91E090878783F701608304C00E9493
:1057D000BD2CDD24D3948D2D27960FB6F894DEBF13
:1057E0000FBECDBFDF91CF911F910F91FF90EF9032
:1057F000DF90CF90BF90AF900895CF93DF93D82FD5
:105800000E94AD2C811111C080E90E94C12C811130
:105810000CC083E00E94D92CC82F811106C08D2FA7
:105820000E94D92C0E94BD2C03C00E94BD2CC1E057
:105830008C2FDF91CF910895CF92DF92EF92FF925C
:105840000F931F93CF93DF9300D0CDB7DEB78C01BA
:105850007B01C42E0E94AD2C81116AC080E90E9498
:10586000C12C811165C00E94D92C811161C00E9498
:10587000AD2C81115DC081E90E94C12C811158C0FD
:1058800061E0CE0102960E94E92C811151C060E0D6
:10589000CE0101960E94E92CD82E811149C00E94A8
:1058A000BD2CC11007C08981982F9770C92E887FA1
:1058B000898301C0C12C9A818981292F30E0322F40
:1058C0002227A901330F660B770B9A01AB01282B16
:1058D00097FF13C0A0EFB8ED0E94272EDC01CB018B
:1058E000A05FB84DBC01CD0137E0969587957795BF
:1058F00067953A95D1F721E00CC0A0E1B7E20E948C
:10590000192E27E096958795779567952A95D1F773
:1059100020E0F801208320E137E240E050E00E94DF
:10592000F12DF801218373836283F701C08204C0E3
:105930000E94BD2CDD24D3948D2D0F900F90DF910C
:10594000CF911F910F91FF90EF90DF90CF9008952E
:105950008091BC0087FFFCCF089584EA8093BC004F
:105960000E94A82C8091B900887F883021F0803176
:1059700011F081E0089580E0089584E98093BC00EF
:105980000895CF93C82F8093BB0084E88093BC0018
:105990000E94A82C8091B900887FC0FF03C080348A
:1059A00029F002C0883111F081E001C080E0CF9180
:1059B00008958093BB0084E88093BC000E94A82CCB
:1059C0008091B900887F883211F081E0089580E0ED
:1059D0000895CF93DF93EC01611102C084E801C008
:1059E00084EC8093BC000E94A82C8091B900887F31
:1059F000803511F0883529F48091BB00888380E0E0
:105A000001C081E0DF91CF9108959091C00095FF92
:105A1000FCCF9091C00090649093C0008093C6002A
:105A200008950F931F93CF938C01C62F972F61E09A
:105A300070E08C2F0E943B2EF80193838283892B88
:105A400009F4C0E0F801C083CF911F910F91089530
:105A5000CF93DF93EC0118821B821A820E94112DD2
:105A60001982DF91CF910895FC0111820895FC0104
:105A700091818081981761F082819381218131E049
:105A8000320F3183FC01E20FF11D608380E0089545
:105A900081E008951F93CF93DF93EC01162F972F8A
:105AA00061E070E0812F0E943B2E9D838C831883E0
:105AB000DF91CF911F910895FC0111821282138210
:105AC000158214820C944A2DFC018381811108C037
:105AD00091E021818281281301C090E0892F01C0CB
