:100000000C942E040C944B040C944B040C944B0451
:100010000C944B040C944B040C944B040C944B0424
:100020000C944B040C944B040C944B040C949C15B2
:100030000C944B040C944B040C9408150C944B0436
:100040000C944B040C944B040C940B160C9450160B
:100050000C944B040C944B040C944B040C944B04E4
:100060000C944B040C944B049809A009B009BE09E8
:10007000CC09DA09EA09210A290A370A450A530A8A
:10008000630A710A7F0A8D0A9B0AA90AB90A790DC7
:10009000810D8F0D9D0DAB0DBB0DC90DD70DE50D60
:1000A000F30D010E110E7A0E880E960EA40EB40EEC
:1000B000C20ED20EDF10ED10FB100911191127111D
:1000C00037110F18071807180918111807180718FB
:1000D0000B181318071807180D1815181A1D1D1DD1
:1000E000201D231D261D291D2C1D2F1D4C1D4F1DA0
:1000F000521D551D581D5B1D5E1D95220A23202390
:100100002C2342234E23612374238823B723C32344
:10011000F223FE23122429240E288C28A828C9287B
:10012000F2282A29502903050205020503000000D0
:1001300000000101010100010305050000000405A4
:100140000F050F0503070607030704000D0A050B3B
:10015000040E08070A0F010101000000020102025B
:100160000201020201010102030005020500030071
:100170000207020002000000010203000007000065
:100180000100000000010200010102020307050551
:100190000507030602020207030701070407030716
:1001A000010601070301050507010307040701070D
:1001B00003070407050703070101020203070507F8
:1001C0000507030705070107010001000001020000
:1001D00001000102030102040201030007000700FD
:1001E0000304020102040307010300020407090BD0
:1001F00008070307050507050307050605070307A5
:10020000040404070306050505060307040704079D
:10021000030704070404030704050507030505078E
:100220000505030702020207030301010106030596
:100230000506050503040404040705111B15111127
:1002400004090D0B09090307050505070307050543
:10025000070403070505060303070505060503074D
:100260000402010703070202020203050505050750
:1002700003050505050605111515151E03050502DF
:10028000050503050507020203070102040702032F
:100290000202020302000202010102030101010342
:1002A0000302050000000300000000070302010034
:1002B0000000030006030507030407050507030004
:1002C00007040407030107050507030003050603E8
:1002D00002030203020203000305030603040705E9
:1002E00005050101000101010201000101020304F1
:1002F0000506050502030101010105001E1515157E
:1003000003000605050503000705050703000705AB
:1003100007040300070507010200030202020300AD
:100320000306010702020302020303000505050795
:1003300003000505050605001515151E0300050239
:100340000505030005050306030007020407030370
:100350000206020301010101010103060203020674
:1003600003070000000003070507000008081C3E03
:10037000000008003E1C080008243636240008004F
:10038000046E040008241818240008042C381000F7
:10039000051F1111111F051F1315191F0100000062
:1003A00001000100010000000400000D0B0008E244
:1003B000ACCAAAEA08086EAA6ACA0880D89595D479
:1003C0000800DB5289DB0800FFD5AAFF0800FF55B3
:1003D000ABFF0800FFF0F8FF0800FF0101FF080075
:1003E000FFFFFFFF0800FF0181FF0800FFF1F9FF99
:1003F00000000000000000000000000000000000FD
:1004000000000000000000000000000000000000EC
:1004100000000000000000000000000000000000DC
:1004200000000000000000000000000000000000CC
:1004300006000C00120018001E0024002A003000E4
:1004400036003C00420048004E0054005A00600054
:1004500066006C00720078007E0084008A009000C4
:1004600096009C00A200A800AE00B400BA00C00034
:10047000C600CC00D200D800DE00E400EA00F000A4
:10048000F600FC00020108010E0114011A0120010E
:1004900026012C01320138013E0144014A0150017C
:1004A00056015C01620168016E0174017A018001EC
:1004B00086018C01920198019E01A401AA01B0015C
:1004C000B601BC01C201C801CE01D401DA01E001CC
:1004D000E601EC01F201F801FE0104020A02100239
:1004E00016021C02220228022E0234023A024002A4
:1004F00046024C02520258025E0264026A02700214
:1005000076027C02820288028E0294029A02A00283
:10051000A602AC02B202B802BE02C4020000000091
:1005200000000000000000000000000000000000CB
:100530002A152A152A152A152A1500000000000080
:10054000000000000000382B370E1C3B35371E3FE3
:100550003333333333333F1E1C1C0C0C0C0C0C0C8C
:100560001E1E3E3F0303070E1C383F3F3F3F03075D
:100570000E0F03033F3E0333333333333F3F030355
:100580003F3F303E3F0303033F3E1E3E303E3F337E
:1005900033333F1E3F3F030306060C0C18181E3F63
:1005A00033331E3F33333F1E1E3F3333333F1F036E
:1005B0001F1E00382F3F181818181F0F00382F3F24
:1005C000181E1E181818000000000000820000000D
:1005D00000008C000000000000000000000000008F
:1005E000000000000000000000000000000000000B
:1005F00000000000000000000000000000000000FB
:100600000000000000000A000000000000000000E0
:1006100014000000000000000000000000000000C6
:100620000000000000001E00280032003C004600D0
:1006300050005A0064006E007800000000000000C6
:1006400000000000000000000000000000000000AA
:10065000000000000000000000000000000000009A
:10066000000000000000000000000000000000008A
:10067000000000000000000000000000000000007A
:10068000000000000000000000000000000000006A
:10069000000000000000000000000000000000005A
:1006A000000000000000000000000000000000004A
:1006B000000000000000000000000000000000003A
:1006C0000000000000000A050A050A050A050A05DF
:1006D0000000000000000000000000000000000713
:1006E0000700000000000000000000000C0C060FD6
:1006F0000B0B0B0B0B0B0F060E0E06060606060663
:100700000F0F0E0F030303060C080F0F0F0F030646
:10071000070303030F0E030B0B0B0B0B0F0F03034E
:100720000F0F080E0F0303030F0E070F080E0F0B1A
:100730000B0B0F060F0F03030606060C0C0C060F1F
:100740000D0D0E070B0B0F06060F0B0B0B0F070300
:100750000F0E0000000C0C00000C0C00000000004C
:100760000000000000000000000000000000000089
:100770000000000000000000000000000000000079
:100780000000000000000000000000000000000069
:100790000000000000000000000000000A0000004F
:1007A0000000000000000000000000000000000049
:1007B00000000000000014001E00000028003200AD
:1007C0003C00460050005A0064006E007800820031
:1007D0008C0000000000000000000000000000008D
:1007E0000000000000000000000000000000000009
:1007F00000000000000000000000000000000000F9
:1008000000000000000000000000000000000000E8
:1008100000000000000000000000000000000000D8
:1008200000000000000000000000000000000000C8
:1008300000000000000000000000000000000000B8
:1008400000000000000000000000000000000000A8
:1008500000000000000000000000000011241FBE86
:10086000CFEFD8E0DEBFCDBF11E0A0E0B1E0EEE811
:10087000FDE502C005900D92AE37B107D9F723E030
:10088000AEE7B1E001C01D92A33EB207E1F70E94BE
:1008900070200C94C52E0C94000090917C00907FE9
:1008A0008F70892B80937C0080917A0086FDFCCF2D
:1008B00080917A00806480937A0080917A0086FD2E
:1008C000FCCF809178009091790093700895FC019D
:1008D0002081FAE02F9F900111242053384FFC0112
:1008E0008181280F311DC90183709927892B39F423
:1008F000C90164E670E00E94F22C892B61F4C90101
:1009000060E971E00E94F22C9C0191E0232B09F038
:1009100090E0892F089581E00895CF93DF93CDB7BC
:10092000DEB72C970FB6F894DEBF0FBECDBF2CE01C
:10093000E8E1F1E0DE01119601900D922A95E1F7D0
:10094000FC012281223021F40E946704845E0AC0E7
:100950008FEF820F8B3028F4FE01E20FF11D8081B2
:1009600001C080E02C960FB6F894DEBF0FBECDBF5D
:10097000DF91CF9108951F93CF93DF93EC011B81FB
:100980000E948D041817E0F091E09B838A818C30DF
:1009900098F09A838981893058F01982888189304A
:1009A00018F0188280EF0FC08F5F888380E70BC03C
:1009B0008F5F898380E307C08F5F8A8380E103C0F4
:1009C0001F5F1B8380E0DF91CF911F910895FC0191
:1009D00087819085873E23E09207F8F01086178282
:1009E00086818B33B0F0168285818B3370F015824F
:1009F0008481873130F0CF0114820E94BB048F6064
:100A000008958F5F848387E008958F5F858383E0F7
:100A100008958F5F868381E008950196908787838C
:100A200080E00895CF93DF93FC01C1E0878190853A
:100A3000883E934008F4C0E086818C3308F0C260A1
:100A400085818C3308F0C4608481883108F0C860E7
:100A5000828181508C3008F0C061D381DD2329F080
:100A6000CF010E948D048D1708F4C0628C2FDF9196
:100A7000CF910895FC01808191812AE0829F900DA1
:100A80001124428123818FEF840F823010F4915022
:100A9000445F2352290F96959695290F50E04F5F9A
:100AA0005F4F3DE0349FC001359F900D112465E0FC
:100AB00070E00E94062D260F822F90E0069667E0D8
:100AC00070E00E94062D8F5F089580E090E0FC01A9
:100AD000EE0FFF1FEE0FFF1FEC53FE4F108211822F
:100AE0001282138201968031910589F7089580E082
:100AF00090E09C01220F331F220F331FF901EC53AA
:100B0000FE4F4081518162817381F901EC57FE4FA4
:100B1000408351836283738301968031910549F745
:100B200008954F925F926F927F929F92AF92BF9281
:100B3000CF92DF92EF92FF920F931F93CF93DF93A9
:100B40008431A1F08631F1F0853049F5E22FF0E0F3
:100B5000EE0FFF1FE051FC4F25913491F901EA5D42
:100B6000FE4FA491C6E2D1E095E01FC0E22FF0E075
:100B7000EE0FFF1FE45AF84F25913491C6ECD6E0F2
:100B8000A4E00BC0E22FF0E0EE0FFF1FEA53FA4F94
:100B900025913491C0E3D5E0A6E09AE006C0C0E01C
:100BA000D0E0A0E020E030E090E0F901EC0FFD1F84
:100BB000912C50E0421B530B4C1B5D0B807F70E06F
:100BC000B0E011976B01CA1ADB0A5D01A61AB70AD9
:100BD000991509F43AC0EA01CE0FDF1F9F012F5F7C
:100BE0003F4F7901811103C0F901049102C0E491E2
:100BF0000E2F10E020E030E0CC0FDD1FCC0FDD1F0A
:100C0000CC53DE4F488059806A807B806A177B070F
:100C10004CF40A2C04C036952795179507950A942D
:100C2000D2F708C00C2C04C0000F111F221F331F65
:100C30000A94D2F70429152926293729088319830C
:100C40002A833B839394F701C3CFDF91CF911F9108
:100C50000F91FF90EF90DF90CF90BF90AF909F905B
:100C60007F906F905F904F9008952F923F924F9298
:100C70005F926F927F928F929F92AF92BF92CF922C
:100C8000DF92EF92FF920F931F93CF93DF93CDB735
:100C9000DEB72E970FB6F894DEBF0FBECDBF4983E7
:100CA000843121F1863109F438C0853009F04DC016
:100CB000E22FF0E0EE0FFF1FE051FC4FA591B49141
:100CC000BE87AD87E02FF0E0EE0FFF1FE051FC4F35
:100CD00025913491FD01EA5DFE4F9491F901EA5DA1
:100CE000FE4FE49146E251E0F5E038C0E22FF0E03B
:100CF000EE0FFF1FE45AF84FA590B490BE86AD8664
:100D0000E02FF0E0EE0FFF1FE45AF84F25913491E9
:100D100046EC56E0E4E094E016C0E22FF0E0EE0F7F
:100D2000FF1FEA53FA4F259134913E872D87E02F1C
:100D3000F0E0EE0FFF1FEA53FA4F2591349140E3A4
:100D400055E0E6E096E0FAE009C040E050E0E0E07F
:100D500090E020E030E01E861D86F0E0FE1508F4ED
:100D6000CDC070E0F12CD7011197BC83AB836F2EFF
:100D7000712CB980AB2CB12CBE82AD826901C40E3E
:100D8000D51E53012FEFA21AB20AAE18BF08D60122
:100D90001196B887AF83862E912CAE2FB0E01197B5
:100DA00094012A1B3B0B3A8729879D012819390991
:100DB0003C872B87E72FF0E02B813C81E217F3077C
:100DC0000CF03DC04D805E804E0E5F1EEA0DFB1D97
:100DD000853029F42F813885E20FF31F02C0EC0D16
:100DE000FD1DE4910E2F10E020E030E0F201EE0F47
:100DF000FF1FEE0FFF1FEC53FE4F2080318042801B
:100E000053808A169B064CF40B8404C036952795B4
:100E1000179507950A94D2F708C0098404C0000FFB
:100E2000111F221F331F0A94D2F7022913292429E4
:100E3000352900831183228333837F5FBBCF70E02A
:100E400083010E191F093981E30EF11C807FAD85E6
:100E5000BE85A40FB51FBC83AB83AD014F5F5F4F51
:100E6000C62ED12C292F30E0215031091601221A2B
:100E7000330A5901AC18BD08BA82A982E72FF0E005
:100E8000E017F107DCF5D701AE0FBF1F811103C0DA
:100E9000E40FF51F04C0AB80BC80EA0DFB1DE4919C
:100EA0004E2E512C612C712CAA0FBB1FAA0FBB1FF9
:100EB000AC53BE4F8D909D90AD90BC901397C216D1
:100EC000D3064CF4098004C07694679457944794F1
:100ED0000A94D2F708C0022C04C0440C551C661CAE
:100EE000771C0A94D2F7482859286A287B284D9203
:100EF0005D926D927C9213977F5FC0CF2E960FB656
:100F0000F894DEBF0FBECDBFDF91CF911F910F913F
:100F1000FF90EF90DF90CF90BF90AF909F908F9019
:100F20007F906F905F904F903F902F900895CF9358
:100F3000DF9300D000D000D0CDB7DEB7FC01348104
:100F40003A3030F0832F6AE00E94E62C805D01C0C9
:100F500080E289832AE0832F622F0E94E62C905D35
:100F60009A8385810E94E62C805D8B83905D9C83B3
:100F700086810E94E62C805D8D83905D9E83E6E0F5
:100F8000F1E0DE01119680E09281911106C09C9102
:100F90002081921749F0918307C09C91218192177B
:100FA00019F020839183128241819081941719F066
:100FB00092819F5F9283228130E0843018F065E057
:100FC00070E002C06AE070E06217730714F41282E6
:100FD00040838F5F339611968630B1F626960FB612
:100FE000F894DEBF0FBECDBFDF91CF9108952F9251
:100FF0003F924F925F926F927F928F929F92AF92A9
:10100000BF92CF92DF92EF920F93CF93DF93CDB742
:10101000DEB762970FB6F894DEBF0FBECDBF2B01CF
:101020004091240150912501609126017091270182
:101030004D875E876F87788B4091280150912901F9
:1010400060912A0170912B0149875A876B877C87B1
:1010500040912C0150912D0160912E0170912F0132
:101060004D835E836F8378874091300150913101C9
:10107000609132017091330149835A836B837C8381
:101080000E94970756FE06C02AE346E060E184E12D
:101090000E949105CE0101961C0186E0C82E81E0D8
:1010A000D82E5E0195E0A90EB11C3E01E9E06E0E5E
:1010B000711C4E01FDE08F0E911CBA8AA98AF101C4
:1010C00081E090E0019002C0880F991F0A94E2F736
:1010D0001F0184219521892B61F0F601E2800181B5
:1010E0002081F5014081F3016081F40180810E943B
:1010F0003506F3E0CF0ED11C8FEFA81AB80A9FEF88
:10110000691A790AEFEF8E1A9E0A89899A89281638
:101110003906A9F662960FB6F894DEBF0FBECDBFB2
:10112000DF91CF910F91EF90DF90CF90BF90AF9074
:101130009F908F907F906F905F904F903F902F90F7
:1011400008952F923F924F925F926F927F928F926B
:101150009F92AF92BF92CF92DF92EF920F93CF9375
:10116000DF93CDB7DEB76A970FB6F894DEBF0FBE38
:10117000CDBF2B0126E0E4E3F1E0DE0153960190C0
:101180000D922A95E1F726E0EAE3F1E0DE011D96F3
:1011900001900D922A95E1F726E0E0E4F1E0DE010E
:1011A000179601900D922A95E1F726E0E6E4F1E02A
:1011B000DE01119601900D922A95E1F70E949707A2
:1011C00056FE06C02AE346E065E184E10E949105EF
:1011D000CE0101961C0186E0C82E81E0D82E5E016A
:1011E00097E0A90EB11C3E01EDE06E0E711C4E01A0
:1011F000F3E18F0E911CBA8EA98EF10181E090E08F
:10120000019002C0880F991F0A94E2F71F01842100
:101210009521892B61F0F601E28001812081F501A1
:101220004081F3016081F40180810E943506F3E082
:10123000CF0ED11C8FEFA81AB80A9FEF691A790A4E
:10124000EFEF8E1A9E0A898D9A8D28163906A9F617
:101250006A960FB6F894DEBF0FBECDBFDF91CF9177
:101260000F91EF90DF90CF90BF90AF909F908F90B5
:101270007F906F905F904F903F902F900895EF92E6
:10128000FF920F931F93CF93DF937C01C62F8A01A8
:1012900057FF06C02FE240E068E185E00E9491051B
:1012A00012FF16C0F70122812A3060F021E340E0EE
:1012B0006FE185E00E949105F70122812A5D40E0FF
:1012C0006CE103C0205D40E06DE185E00E94910586
:1012D00011FF20C0F70183818A30A8F0DAE06D2F7A
:1012E0000E94E62C20E3280F40E065E185E00E94A3
:1012F0009105F70183816D2F0E94E62C20E3290FD1
:1013000040E061E104C020E3280F40E063E185E0B4
:101310000E94910510FF76C08C2F90E0FC01319760
:10132000E730F10508F06EC0EC5CFF4F0C943C2DEB
:1013300023E540E06AE085E00E94910525E707C0CB
:101340002DE440E06CE085E00E9491052FE640E04E
:1013500066E085E00E9491052EE640E062E049C02B
:1013600024E540E06AE085E00E94910525E740E041
:1013700066E085E00E94910525E6EFCF27E540E095
:101380006CE085E00E94910525E640E066E085E09E
:101390000E94910524E6E1CF24E540E06AE085E083
:1013A0000E94910528E640E066E085E00E949105F4
:1013B00025E7D3CF26E440E067E085E00E94910571
:1013C00022E740E063E085E00E94910529E640E0E5
:1013D00060E00FC023E540E069E085E00E949105F0
:1013E00021E640E065E085E00E94910524E740E0C9
:1013F00061E085E0DF91CF911F910F91FF90EF9019
:101400000C949105DF91CF911F910F91FF90EF9078
:101410000895EF92FF920F931F93CF937C018B015E
:1014200072FFC7C0DC011296EC918E2F90E0FC0198
:101430003197EC30F10508F0AAC0E55CFF4F0C9441
:101440003C2D2AE440E06FE185E00E94910521E611
:1014500041C026E440E06FE185E00E94910525E669
:1014600040E06BE185E00E94910522E69DC02DE4FD
:1014700040E06FE185E00E94910521E640E069E1EE
:1014800085E00E94910522E71BC021E440E06FE166
:1014900085E00E94910520E740E06BE185E00E9435
:1014A000910522E781C02DE440E06FE185E00E94D4
:1014B000910521E640E069E185E00E94910529E778
:1014C00040E065E173C02AE440E06FE185E00E94FE
:1014D000910525E740E06BE185E00E9491052EE64D
:1014E00063C02AE440E06FE185E00E94910525E7B2
:1014F00040E06BE185E00E9491052CE655C021E4B7
:1015000040E06FE185E00E94910525E740E06BE156
:1015100085E00E94910527E647C023E540E06FE1A2
:1015200085E00E94910525E640E06BE185E00E94A0
:10153000910520E739C02FE440E06FE185E00E948B
:10154000910523E640E06BE185E00E94910524E7E8
:101550002BC02EE440E06FE185E00E9491052FE66C
:1015600040E06AE185E00E94910526E740E066E1FF
:101570001DC024E440E06FE185E00E94910525E66E
:1015800040E06BE185E00E94910523E60DC02DE26D
:1015900040E06FE185E00E9491052DE240E06BE1C3
:1015A00085E00E9491052DE240E067E185E00E9420
:1015B000910511FF24C0F70123812A30D0F02E318C
:1015C00020F0C2EEC20F23E009C0243120F0CCEE9F
:1015D000C20F22E003C0C6EFC20F21E0205D40E051
:1015E00061E185E00E94910520E32C0F40E06DE071
:1015F00003C0205D40E06FE085E00E94910517FF89
:1016000006C027E240E068E085E00E94910514FFF3
:1016100008C0D7012C91205D40E066E085E00E9483
:10162000910513FF0DC0F7012181205D40E062E0CC
:1016300085E0CF911F910F91FF90EF900C94910551
:10164000CF911F910F91FF90EF9008950F931F93EB
:10165000CF9302FF74C08901C42F81115BC044364F
:10166000F0F0662331F02DE240E06DE185E00E946C
:1016700091058C2F64E60E94E62C20E3280F40E0C1
:1016800069E185E00E9491052AE08C2F622F0E947B
:10169000E62CC92F0E94E62C20E3290F15C04A3002
:1016A00080F0662331F02DE240E069E185E00E94A0
:1016B00091058C2F6AE00E94E62CC92F20E3280FA9
:1016C00003C0662331F02DE240E065E185E00E9431
:1016D000910520E32C0F40E061E185E00E94910537
:1016E0002EE240E06DE085E00E949105C80168EEC1
:1016F00073E00E94F22C20E3260F40E06BE085E0CF
:101700000E9491052FE740E066E085E00E94910588
:1017100023E40DC02DE240E06BE085E00E949105DE
:101720002DE240E067E085E00E9491052DE240E077
:1017300063E085E0CF911F910F910C949105CF91BB
:101740001F910F910895CF9342FFCDC0C62F8130D6
:1017500009F44BC010F1823009F487C08F3F09F0C3
:10176000B0C02EE440E06FE185E00E9491052FE6D5
:1017700040E06AE185E00E94910527E440E065E1F0
:1017800085E00E94910520E540E061E185E00E944E
:10179000910523E540E06DE090C025E540E06FE174
:1017A00085E00E9491052EE640E06BE185E00E9415
:1017B000910526E640E067E185E00E94910529E673
:1017C00040E064E185E00E94910528E740E062E1A5
:1017D00085E00E94910525E640E06EE085E00E94EC
:1017E000910524E640E06AE03CC06330E1F422E386
:1017F00040E06FE185E00E94910524E440E06BE168
:1018000085E00E94910526E640E066E185E00E94C1
:10181000910529E640E063E185E00E94910528E713
:1018200040E061E143C0643008F44BC023E340E092
:101830006FE185E00E94910524E440E06BE185E0E2
:101840000E94910526E640E066E185E00E94910550
:1018500029E640E063E185E00E94910528E740E049
:1018600061E185E00E9491052CC024E440E06FE135
:1018700085E00E94910527E440E06BE185E00E944D
:10188000910520E540E067E185E00E94910523E5B0
:1018900040E063E1E6CFCA3060F08C2F6AE00E943E
:1018A000E62CC92F20E3280F40E066E085E00E9487
:1018B000910520E32C0F40E062E085E0CF910C948D
:1018C0009105C43640F329E349E063E185E00E94D5
:1018D000910529E345E063E185E00E9491052BE253
:1018E00042E063E1EACFCF910895CF93DF93D82F01
:1018F000C62F61FF06C023E840E06BE185E00E944F
:101900009105C0FF06C025E840E06BE085E00E943D
:101910009105C2FF24C025E545E06FE185E00E9406
:10192000910523E745E06BE185E00E94910525E6FE
:1019300045E067E185E00E94910527E445E061E12B
:1019400085E00E94910520E545E06DE085E00E947C
:10195000910523E545E069E085E00E949105C6FF19
:101960000AC0D11102C026E801C027E84BE061E1BE
:1019700085E00E949105C5FF20C0DD2381F029E7A5
:101980004BE06AE085E00E94910525E64BE066E0C9
:1019900085E00E94910523E74BE062E009C02EE656
:1019A0004BE069E085E00E9491052FE64BE065E0A1
:1019B00085E0DF91CF910C949105DF91CF9108954F
:1019C000CF93C82F81FF06C021E840E06BE185E09E
:1019D0000E949105C0FF06C022E840E06BE085E070
:1019E0000E949105C2FF5BC023E545E06FE185E001
:1019F0000E94910525E645E06BE185E00E94910596
:101A000024E745E067E185E00E94910524E745E091
:101A100063E185E00E94910529E645E060E185E00B
:101A20000E9491052DE645E06EE085E00E9491055B
:101A300025E645E068E085E00E9491052DE64BE053
:101A40006FE185E00E94910521E64BE069E185E0C8
:101A50000E9491052EE64BE065E185E00E9491052C
:101A600025E74BE061E185E00E94910521E64BE02E
:101A70006DE085E00E9491052CE64BE069E085E091
:101A80000E9491052CE64BE066E085E00E949105FE
:101A900029E74BE063E085E0CF910C949105CF916D
:101AA0000895EF92FF920F931F93CF93DF93EC0172
:101AB000F62EE22E01FF06C0242F40E06BE185E008
:101AC0000E94910500FF06C02E2D40E06BE085E0EE
:101AD0000E94910512FFC5C0EA818E2F90E0FC01A3
:101AE0003197EC30F10508F0AAC0E95BFF4F0C9488
:101AF0003C2D2AE445E06FE185E00E94910521E656
:101B000041C026E445E06FE185E00E94910525E6AD
:101B100045E06BE185E00E94910522E69DC02DE441
:101B200045E06FE185E00E94910521E645E069E12D
:101B300085E00E94910522E71BC021E445E06FE1AA
:101B400085E00E94910520E745E06BE185E00E9479
:101B5000910522E781C02DE445E06FE185E00E9418
:101B6000910521E645E069E185E00E94910529E7BC
:101B700045E065E173C02AE445E06FE185E00E943D
:101B8000910525E745E06BE185E00E9491052EE691
:101B900063C02AE445E06FE185E00E94910525E7F6
:101BA00045E06BE185E00E9491052CE655C021E4FB
:101BB00045E06FE185E00E94910525E745E06BE196
:101BC00085E00E94910527E647C023E545E06FE1E7
:101BD00085E00E94910525E645E06BE185E00E94E5
:101BE000910520E739C02FE445E06FE185E00E94D0
:101BF000910523E645E06BE185E00E94910524E72D
:101C00002BC02EE445E06FE185E00E9491052FE6B0
:101C100045E06AE185E00E94910526E745E066E13E
:101C20001DC024E445E06FE185E00E94910525E6B2
:101C300045E06BE185E00E94910523E60DC02DE2B1
:101C400045E06FE185E00E9491052DE245E06BE102
:101C500085E00E9491052DE245E067E185E00E9464
:101C6000910511FF1FC08B818A30A8F02AE0E22E77
:101C70006E2D0E94E62C20E3280F45E061E185E00F
:101C80000E9491058B816E2D0E94E62C20E3290F86
:101C900045E06DE004C020E3280F45E06FE085E0FB
:101CA0000E94910517FF06C027E245E068E085E045
:101CB0000E94910514FF07C02881205D45E066E081
:101CC00085E00E94910513FF07C02981205D45E052
:101CD00062E085E00E94910510FF76C08F2D90E0B4
:101CE000FC013197E730F10508F06EC0ED5AFF4F67
:101CF0000C943C2D23E54BE06FE185E00E949105BB
:101D000025E74BE06BE185E00E9491052EE657C088
:101D10002DE44BE06FE185E00E9491052FE64BE05A
:101D200069E185E00E9491052EE61BC024E54BE0A9
:101D30006FE185E00E94910525E74BE06BE185E0CE
:101D40000E94910525E63BC027E54BE06FE185E069
:101D50000E94910525E64BE069E185E00E9491052E
:101D600024E64BE065E12DC024E54BE06FE185E022
:101D70000E94910528E64BE06BE185E00E94910509
:101D800025E71DC026E44BE06FE185E00E94910548
:101D900022E74BE06BE185E00E94910529E64BE0EC
:101DA00068E10FC023E54BE06FE185E00E949105FB
:101DB00021E64BE06BE185E00E94910524E74BE0D2
:101DC00067E185E00E94910516FF06C02AE34BE01B
:101DD00068E085E00E94910507FF1DC08C818A3074
:101DE00098F09AE0F92E6F2D0E94E62C20E3280F40
:101DF0004BE060E185E00E9491058C816F2D0E948F
:101E0000E62C20E3290F02C020E3280F4BE06CE012
:101E100085E00E94910506FF0BC08D816AE00E945B
:101E2000E62C20E3280F4BE066E085E00E94910558
:101E300005FF11C08D816AE00E94E62C20E3290F86
:101E40004BE062E085E0DF91CF911F910F91FF9011
:101E5000EF900C949105DF91CF911F910F91FF901E
:101E6000EF9008950F931F93CF93DF93082F162FB2
:101E7000EA0141FF06C021E840E06BE185E00E94F5
:101E80009105C0FF06C022E840E06BE085E00E94BB
:101E90009105C2FF3CC023E545E06FE185E00E946B
:101EA000910525E645E06BE185E00E94910524E778
:101EB00045E067E185E00E94910525E745E064E1A2
:101EC00085E00E94910520E745E060E185E00E9401
:101ED000910522E54BE06FE185E00E94910525E642
:101EE0004BE06BE185E00E9491052CE64BE068E158
:101EF00085E00E94910521E64BE065E185E00E94C6
:101F0000910529E74BE061E185E00E949105D0FF52
:101F100007C021E3200F4BE06CE085E00E949105B3
:101F2000C7FF17C028E24BE068E085E00E949105FA
:101F300020E3210F4BE065E085E00E94910529E256
:101F40004BE061E085E0DF91CF911F910F910C9400
:101F50009105DF91CF911F910F910895AF92BF929C
:101F6000CF92DF92EF92FF920F931F93CF93DF9365
:101F7000F82EEB01E22E01FF06C0242F40E06BE1BA
:101F800085E00E94910500FF06C02E2D40E06BE029
:101F900085E00E94910525E445E06FE185E00E941F
:101FA000910510FF07C021E32F0D45E06BE185E0AF
:101FB0000E9491052AE84BE065E185E00E949105C9
:101FC0002AE345E068E085E00E9491052AE34BE0C2
:101FD00068E085E00E94910507FF1DC088818A3076
:101FE00098F04AE0F42E6F2D0E94E62C20E3280F93
:101FF00045E060E185E00E94910588816F2D0E9497
:10200000E62C20E3290F02C020E3280F45E06CE016
:1020100085E00E94910506FF0BC089816AE00E945D
:10202000E62C20E3280F45E066E085E00E9491055C
:1020300005FF0BC089816AE00E94E62C20E3290F8E
:1020400045E062E085E00E94910504FF1DC08A81A1
:102050008A3098F03AE0F32E6F2D0E94E62C20E3B0
:10206000280F4BE060E185E00E9491058A816F2D89
:102070000E94E62C20E3290F02C020E3280F4BE04A
:102080006CE085E00E94910503FF0BC08B816AE044
:102090000E94E62C20E3280F4BE066E085E00E94DA
:1020A000910502FF0BC08B816AE00E94E62C20E3C1
:1020B000290F4BE062E085E00E94910589E0C82E7F
:1020C000D12CF12CAA24A394B12C2FE1E22EC5012E
:1020D0000C2C02C0880F991F0A94E2F780239123E9
:1020E000892BA9F08C8190E096012850310902C01B
:1020F000959587952A95E2F780FF09C02F2D2170CD
:1021000028574BE06E2D6F1985E00E949105F394DE
:102110008FEFC81AD80A87E0F812D9CFDF91CF9194
:102120001F910F91FF90EF90DF90CF90BF90AF90F5
:102130000895AF92BF92CF92DF92EF92FF920F93EA
:102140001F93CF93DF93C82E7B01D42EE901FB01AF
:102150000481802F90E001E010E002C0000F111F09
:102160004A95E2F70823192321FF06C023E840E03F
:102170006BE185E00E949105C0FF06C025E840E0C4
:102180006BE085E00E94910525E445E06FE185E084
:102190000E949105D0FF7DC021E32C0D45E06BE14D
:1021A00085E00E9491054D2D50E0FA013197E7300E
:1021B000F10508F06EC0E65AFF4F0C943C2D23E564
:1021C00045E062E185E00E94910525E745E06EE08B
:1021D00085E00E9491052EE657C02DE445E062E1BE
:1021E00085E00E9491052FE645E06CE085E00E94C5
:1021F00091052EE61BC024E545E062E185E00E94E2
:10220000910525E745E06EE085E00E94910525E611
:102210003BC027E545E062E185E00E94910525E6A7
:1022200045E06CE085E00E94910524E645E068E029
:102230002DC024E545E062E185E00E94910528E695
:1022400045E06EE085E00E94910525E71DC026E48B
:1022500045E062E185E00E94910522E745E06EE0FD
:1022600085E00E94910529E645E06BE00FC023E57B
:1022700045E062E185E00E94910521E645E06EE0DF
:1022800085E00E94910524E745E06AE085E00E9430
:102290009105C6FF0BC00115110511F426E801C018
:1022A00027E84BE061E185E00E949105C5FF14C07D
:1022B000012BD9F029E74BE06AE085E00E94910507
:1022C00025E64BE066E085E00E94910523E74BE0C0
:1022D00062E085E00E94910589E0C82ED12C10E0D3
:1022E000AA24A394B12C0FE10AC02EE64BE069E0CA
:1022F00085E00E9491052FE64BE065E0EACFC5013D
:102300000C2C02C0880F991F0A94E2F78C239D239E
:10231000892BB1F0F701848190E0960128503109B2
:1023200002C0959587952A95E2F780FF09C0212F75
:10233000217028574BE0602F611B85E00E949105BA
:102340001F5FFFEFCF1ADF0A1730C9F6DF91CF9179
:102350001F910F91FF90EF90DF90CF90BF90AF90C3
:1023600008951F93CF93DF93C82FD62F61FF06C028
:1023700023E840E06BE185E00E949105D0FF06C0B4
:1023800025E840E06BE085E00E949105D2FF18C08F
:102390002BE845E06FE185E00E9491052CE845E0DF
:1023A00067E185E00E9491052DE845E06FE085E05A
:1023B0000E9491052EE845E067E085E00E949105C6
:1023C000D6FF1BC08FEF8C0F843050F490E0FC01DF
:1023D000E05BFE4F2081FC01E45BFE4F108102C0F8
:1023E00010E92FE84BE06FE185E00E949105212F75
:1023F0004BE067E185E00E949105D5FF46C0C23001
:1024000089F020F4C13031F522E31DC0C330D1F092
:10241000C43001F521E34BE06EE085E00E949105B8
:1024200020E301C025E34BE06BE085E00E949105CD
:1024300020E34BE067E085E00E94910525E24BE058
:1024400063E01DC027E34BE06BE085E00E9491054F
:1024500025E3EFCF21E64BE06DE085E00E9491059A
:1024600025E74BE069E085E00E94910524E74BE019
:1024700065E085E00E9491052FE64BE062E085E093
:10248000DF91CF911F910C949105DF91CF911F9116
:102490000895CF93DF93D82FC62F61FF06C023E89E
:1024A00040E06BE185E00E949105C0FF06C025E891
:1024B00040E06BE085E00E949105C2FF30C023E55B
:1024C00045E06FE185E00E94910521E645E06BE182
:1024D00085E00E94910526E745E067E185E00E94DE
:1024E000910525E645E063E185E00E94910524E73A
:1024F00045E06EE085E00E9491052FE645E06BE047
:1025000085E00E94910525E445E066E085E00E94B3
:10251000910525E445E062E085E00E949105C6FF53
:102520000AC0D11102C026E801C027E84BE061E1F2
:1025300085E00E949105C5FF20C0DD2381F029E7D9
:102540004BE06AE085E00E94910525E64BE066E0FD
:1025500085E00E94910523E74BE062E009C02EE68A
:102560004BE069E085E00E9491052FE64BE065E0D5
:1025700085E0DF91CF910C949105DF91CF91089583
:10258000CF93DF93EC012CE440E06FE185E00E9403
:10259000910529E640E06BE185E00E94910527E680
:1025A00040E069E185E00E94910528E640E065E1B0
:1025B00085E00E94910524E740E061E185E00E940A
:1025C000910523E740E06DE085E00E94910525E656
:1025D00040E069E085E00E9491052EE640E065E07C
:1025E00085E00E9491052EE240E061E085E00E94D6
:1025F000910521E44BE06FE185E00E94910524E420
:102600004BE06BE185E00E94910523E44BE067E13C
:1026100085E00E949105C83E83E0D80790F0CE0186
:1026200068EE73E00E94F22CCB016AE070E00E9439
:10263000F22C20E3280F46E062E184E10E9491053C
:1026400003C0C436D10590F0CE0164E670E00E946C
:10265000F22CCB016AE070E00E94F22C20E3280FFC
:1026600046E06DE084E10E94910503C0CA30D105C7
:1026700088F02AE030E0CE01B9010E94F22CCB01B3
:10268000B9010E94F22C20E3280F46E068E084E1C3
:102690000E949105CE016AE070E00E94F22C20E3D6
:1026A000280F46E063E084E1DF91CF910C9491051F
:1026B000F999FECF937092BD81BDF89A80B50895C7
:1026C0009C01F999FECFF8949FB39F70411102C00D
:1026D00080E201C080E0982B9FBB337032BD21BDEA
:1026E00060BDFA9AF99A7894F999FECF08950F93FC
:1026F0001F93CF938C01C62F0E9458138C1799F00B
:1027000090E0809590952C2F30E082239323892BA5
:1027100011F041E001C040E06C2FC801CF911F9142
:102720000F910C946013CF911F910F910895FF9218
:102730000F931F93CF93DF938C01C0E0F8012081AA
:10274000C21708F58C2F90E030E021503109821734
:10275000930724F4FF24F394FC0E01C0F12CF8013C
:1027600023813481820F931F0E945813D82FF801C0
:10277000838194818F0D911D0E945813DF5F8D130B
:1027800003C0CF5FDBCFC0E08C2FDF91CF911F91D3
:102790000F91FF900895CF92DF92EF92FF920F93E7
:1027A0001F93CF93DF938C017B010E949713F80155
:1027B00021813281F82FF29FC001F39F900D1124E7
:1027C000F80125813681EC01C20FD31F6701CE19B4
:1027D000DF09F80121813281C6018E199F09821714
:1027E000930748F4CE018C0D9D1D0E945813F601ED
:1027F00081936F01EECFDF91CF911F910F91FF90E9
:10280000EF90DF90CF9008958F929F92AF92BF92FA
:10281000CF92DF92EF92FF920F931F93CF93DF93AC
:102820008C014B010E949713E82EF12CF8012081B6
:1028300030E021503109E216F30614F48F5F01C035
:1028400080E0C82FD0E0F80181819281C89F5001BB
:10285000C99FB00CD89FB00C112485819681A80E19
:10286000B91E6401812C912CF80181819281881616
:10287000990660F4F60161916F01C4018A0D9B1DF8
:102880000E947713FFEF8F1A9F0AEECF8381948106
:102890008E0D9F1D0E94581361E0680FF80183811F
:1028A00094818C0F9D1FDF91CF911F910F91FF900D
:1028B000EF90DF90CF90BF90AF909F908F900C944F
:1028C0007713FC01108211820895FC01808161114F
:1028D00006C011828F3F29F08F5F80830895818326
:1028E00010820895FC0181E09081913009F080E030
:1028F00008959C012D3281E0380770F0213293E079
:10290000390760F0253883E0380750F081E0213046
:10291000344038F080E0089584E0089583E008951D
:1029200082E008950F931F9300918001109181011F
:102930002091820130918301DC01CB01800F911F36
:10294000A21FB31F0091800110918101209182018B
:1029500030918301081719072A073B0798F31F9145
:102960000F91089515B887E084B983E088B917B846
:102970001BB88EEF8AB9089582E084BD93E095BDBF
:1029800080936E008DE487BD18BC16BC089510922C
:10299000800089E0809381001092820082E0809321
:1029A0006F008FE19EE490938900809388001092DD
:1029B0008B0010928A001092850010928400089576
:1029C0001092C00088E98093C10086E08093C20025
:1029D00081E890E09093C5008093C400089584E05E
:1029E0008093BC001092B9001092BB008CE58093DC
:1029F000B800089510927C0087E880937A00EBE796
:102A0000F0E080818074808384E080937E0008956C
:102A10001F920F920FB60F9211248F929F92AF9236
:102A2000BF92CF92DF92EF92FF922F933F934F93FB
:102A30005F936F937F938F939F93EF93FF93909107
:102A4000130280917F01891768F4E0917E0184E090
:102A5000E89FF0011124EC57FE4F408151816281C3
:102A6000738103C040E050E0BA015E9820E030E09E
:102A7000812C912C5401A3945D988BB1837E90910D
:102A80007E01921302C094E001C090E0892B922F46
:102A900075016401022E04C0CC0CDD1CEE1CFF1C71
:102AA0000A94D2F7C422D522E622F722CD28CE28D6
:102AB000CF2811F4E0E001C0E8E08E2B6A017B0131
:102AC00004C0F694E794D794C7949A95D2F7C0FCC3
:102AD00002C090E001C090E1892B8BB95D9A2F5F15
:102AE0003F4F2031310541F65E9A80917E018F3053
:102AF00049F410927E0180917F018F5F83708093F3
:102B00007F0103C08F5F80937E01FF91EF919F91C2
:102B10008F917F916F915F914F913F912F91FF9096
:102B2000EF90DF90CF90BF90AF909F908F900F90DD
:102B30000FBE0F901F9018951F920F920FB60F9215
:102B400011242F933F934F935F936F937F938F93B2
:102B50009F93AF93BF93CF93EF93FF9380918001A7
:102B600090918101A0918201B09183010196A11DF4
:102B7000B11D8093800190938101A0938201B09355
:102B8000830184E192E00E94E704C82F80FF04C023
:102B900084E192E00E941205C1FF0DC084E192E041
:102BA0000E943A058093260281E080934A02809336
:102BB0004B0280934C0240918001509181016091C1
:102BC0008201709183018091DB039091DC03A091DD
:102BD000DD03B091DE0388579C4EAF4FBF4F4817BF
:102BE00059076A077B0728F08FEF8093280210921D
:102BF0002902FF91EF91CF91BF91AF919F918F915A
:102C00007F916F915F914F913F912F910F900FBEE8
:102C10000F901F9018951F920F920FB60F921124CC
:102C2000CF92DF92EF92FF922F933F934F935F9358
:102C30006F937F938F939F93AF93BF93CF93EF93B4
:102C4000FF93C091C600C0908001D0908101E090B8
:102C50008201F09083016C2F84E092E00E949C2C12
:102C6000C43241F4C092DB03D092DC03E092DD0376
:102C7000F092DE03FF91EF91CF91BF91AF919F91C1
:102C80008F917F916F915F914F913F912F91FF9025
:102C9000EF90DF90CF900F900FBE0F901F90189580
:102CA0001F920F920FB60F9211242F933F934F93C1
:102CB0005F936F937F938F939F93AF93BF93EF93A4
:102CC000FF93CF93DF931F92CDB7DEB719828AE0CF
:102CD00092E00E948D2C882359F0BE016F5F7F4FD8
:102CE0008AE092E00E94BD2C89810E942E2C05C0B2
:102CF0008091C1008F7D8093C1000F90DF91CF91B3
:102D0000FF91EF91BF91AF919F918F917F916F91C3
:102D10005F914F913F912F910F900FBE0F901F9099
:102D200018952F923F924F925F926F927F928F925F
:102D30009F92AF92BF92CF92DF92EF92FF920F934A
:102D40001F93CF93DF9300D000D01F92CDB7DEB793
:102D50008C017B0119821A821B821C828FEF8D836A
:102D6000FB018081982F907E09F086E0F801808336
:102D700081E0F7019181911101C080E0F801818328
:102D80003701680182E0882E912CA12CB12C95E0AE
:102D9000292EF3018281F601893010F0128234C0AD
:102DA0008283312CF9E2FA9D2001FB9D500C112405
:102DB000F6018281381640F5F40135E0339EE00DCE
:102DC000F11D1124EE0DFF1D8181898382818A838B
:102DD00083818B8384818C83858181608D83CE0107
:102DE00001960E948121D201239CA00DB11D1124C6
:102DF000A00FB11F1396FE013196822D01900D9206
:102E00008A95E1F73394D4CFCE0101960E947921BF
:102E1000F6012281F9E2FA9DC001FB9D900D11247B
:102E2000283088F4DC01229EA00DB11D1124A00FD2
:102E3000B11F1396FE013196322D01900D923A95F5
:102E4000E1F72F5FEDCF3FEFA31AB30A89E2680ED7
:102E5000711CE9E2CE0ED11CF9E28F0E911C33E019
:102E6000A316B10409F095CFF701E358FF4F808115
:102E7000882319F0863008F085E0F801E358FF4F09
:102E800080830F900F900F900F900F90DF91CF9154
:102E90001F910F91FF90EF90DF90CF90BF90AF9078
:102EA0009F908F907F906F905F904F903F902F906A
:102EB00008950F931F93CF93DF93FC012081FB01B3
:102EC0002083FC012181FB012183EC019B018C010A
:102ED00005581F4F4A81F9014283DE0140E01396F5
:102EE0005C911397538314965C91149754831596B1
:102EF0005C911597558316965C9116975683179695
:102F00005C911797516057834F5F159635964830FF
:102F100031F7A996275D3F4FC017D107D9F6FC01BD
:102F2000E358FF4F8081FB01E358FF4F8083DF911F
:102F3000CF911F910F9108959091CE02953018F482
:102F40009093130208958093130208950F931F9393
:102F5000CF93DF9340912A0250912B0260912C0273
:102F600070912D02411551056105710509F466C482
:102F700000918001109181012091820130918301A3
:102F800080912E0290912F02A0913002B0913102D7
:102F9000840F951FA61FB71F081719072A073B079D
:102FA00008F44CC48091800190918101A09182012C
:102FB000B091830180932E0290932F02A093300250
:102FC000B0933102C6B16C2F61708DE492E00E9423
:102FD00065146C2F62708FE492E00E9465148091FA
:102FE0001202982F907ED1F58DE492E00E94721427
:102FF0008823F1F0E09112028E2F90E0FC013697C9
:10300000ED30F10520F4EF59FF4F0C943C2D89E091
:103010000DC08DE00BC081E109C086E007C08AE0E9
:1030200005C08EE003C082E101C085E080931202FA
:103030008FE492E00E947214882309F4FFC38EE7A4
:10304000E1E5F2E0AFECB2E001900D928A95E1F794
:10305000809112028093CF0280E2EEC3843409F49F
:103060001AC120F5843209F49EC370F4813209F448
:103070005BC018F48032E1F1E1C3823209F47FC110
:10308000833209F446C3DAC3813409F490C038F4BA
:10309000853209F4ADC3803409F46BC0CFC38234E8
:1030A00009F4A3C0833409F4D2C0C8C3813609F43B
:1030B000B7C160F4863409F41EC108F404C1873432
:1030C00009F435C1803609F499C1B8C3843609F4CE
:1030D00056C238F4823609F4DCC1833609F412C2D0
:1030E000ADC3853609F49CC2863609F4D2C2A6C3A4
:1030F0008DE492E00E947214882331F09091D00206
:1031000081E089278093D0028FE492E00E947214BC
:10311000882309F493C38091D002882319F0109278
:103120004D033BC381E288C38DE492E00E94721498
:103130008823C1F089E0E4E1F2E0ADE1B2E0019082
:103140000D928A95E1F710922302109225021092B7
:1031500024028DE192E00E943A058093270280E4E8
:10316000809312028FE492E00E9472148111D7CFF3
:1031700065C38DE492E00E947214882379F08091F7
:103180001D02893010F48F5F01C080E080931D0222
:103190008DE192E00E943A05809327028FE492E04D
:1031A0000E947214882309F449C381E445C38DE465
:1031B00092E00E947214882379F080911E02893077
:1031C00010F48F5F01C080E080931E028DE192E0D9
:1031D0000E943A05809327028FE492E00E947214C5
:1031E000882309F42BC382E427C38DE492E00E9474
:1031F0007214882379F080911F028C3010F48F5F55
:1032000001C081E080931F028DE192E00E943A05A7
:10321000809327028FE492E00E947214882309F4BD
:103220000DC3C09120028DE192E00E948D048C17A5
:1032300060F48DE192E00E948D04809320028DE184
:1032400092E00E943A058093270283E4F5C28DE460
:1032500092E00E9472148823A9F0C09120028DE1AF
:1032600092E00E948D04C81720F4809120028F5FA5
:1032700001C081E0809320028DE192E00E943A0536
:10328000809327028FE492E00E947214882309F44D
:10329000D5C284E4D1C28DE492E00E9472148823E6
:1032A00049F080912102873110F48F5F01C080E0E6
:1032B000809321028FE492E00E947214882309F423
:1032C000BDC285E4B9C28DE492E00E9472148823E5
:1032D00049F080912202823310F0825301C0865F50
:1032E000809322028FE492E00E947214882309F4F2
:1032F000A5C286E4A1C28DE492E00E9472148823E4
:1033000069F020912202822F6AE00E94E62C993017
:1033100011F4295001C02F5F209322028FE492E024
:103320000E947214882309F489C287E485C28DE45F
:1033300092E00E947214882319F081E280931202B5
:103340008FE492E00E947214882309F477C289E026
:10335000EDE1F2E0A4E1B2E001900D928A95E1F78F
:1033600084E192E00E943A058093260281E28093F4
:10337000120281E080934A0280934B025FC28DE487
:1033800092E00E947214882341F1E0914D0339E2EA
:10339000E39FF0011124EF52FD4FC081D5E019E207
:1033A00080914D03C83068F4189FC0011124DC9F40
:1033B000800D911D11248E529D4F0E947921CF5F67
:1033C000EFCF99E2899FF0011124EF52FD4F108257
:1033D00010924E0380E6809312028FE492E00E94E6
:1033E0007214882309F42AC280914D03823010F0B0
:1033F00084E222C28F5F80934D0320C28DE492E06D
:103400000E947214882319F082E2809312028FE4E2
:1034100092E00E947214882309F410C281E60CC263
:103420008DE492E00E947214882351F1E0914D03E3
:1034300080914E03682F70E04E2F50E039E2E39FF9
:10344000F001112495E0899FE00DF11D1124EE5249
:10345000FD4F2081273110F42F5F01C020E085E06F
:10346000869FF001879FF00D112439E2349FC0013F
:10347000359F900D1124E80FF91FEE52FD4F208368
:103480008FE492E00E947214882309F4D7C182E687
:10349000D3C18DE492E00E947214882351F1E0912F
:1034A0004D0380914E03282F30E04E2F50E099E2DB
:1034B000E99FF001112495E0899FE00DF11D112491
:1034C000ED52FD4F8081823310F0825301C0865F40
:1034D00095E0929FF001939FF00D112499E2949F43
:1034E0009001959F300D1124E20FF31FED52FD4F17
:1034F00080838FE492E00E947214882309F49EC1B5
:1035000083E69AC18DE492E00E947214882371F1DF
:10351000E0914D0380914E03A82FB0E04E2F50E074
:1035200039E2E39FF001112495E0899FE00DF11D40
:103530001124ED52FD4F2081822F6AE00E94E62C7B
:10354000993011F4295001C02F5F85E08A9FF00166
:103550008B9FF00D112439E2349FC001359F900DEF
:103560001124E80FF91FED52FD4F20838FE492E004
:103570000E947214882309F461C184E65DC18DE460
:1035800092E00E947214882351F1E0914D038091E2
:103590004E03682F70E04E2F50E039E2E39FF001B8
:1035A000112495E0899FE00DF11D1124EC52FD4F8F
:1035B0002081283110F42F5F01C020E085E0869F34
:1035C000F001879FF00D112439E2349FC001359F2F
:1035D000900D1124E80FF91FEC52FD4F20838FE46A
:1035E00092E00E947214882309F428C180914D034F
:1035F00020914E0339E2839FC001112435E0239FBF
:10360000800D911D11248E5E9D4FFC01EE53FF4FE6
:103610002081283119F43196108276C085E60CC1DC
:103620008DE492E00E947214882351F1E0914D03E1
:1036300080914E03282F30E04E2F50E099E2E99F11
:10364000F001112495E0899FE00DF11D1124EB524A
:10365000FD4F8081823310F0825301C0865F95E078
:10366000929FF001939FF00D112499E2949F900195
:10367000959F300D1124E20FF31FEB52FD4F808315
:103680008FE492E00E947214882309F4D7C086E682
:10369000D3C08DE492E00E947214882371F1E0910E
:1036A0004D0380914E03A82FB0E04E2F50E039E239
:1036B000E39FF001112495E0899FE00DF11D112495
:1036C000EB52FD4F2081822F6AE00E94E62C993058
:1036D00011F4295001C02F5F85E08A9FF0018B9F74
:1036E000F00D112439E2349FC001359F900D112453
:1036F000E80FF91FEB52FD4F20838FE492E00E9408
:103700007214882309F49AC081E080934F0383E206
:1037100093C08DE492E00E9472148823F9F0209106
:103720004D0380914E0390E0019635E0389FF00103
:10373000399FF00D112439E2239FE00DF11D112472
:10374000EF52FD4F81E090E000904F0302C0880FE0
:10375000991F0A94E2F79081892780838FE492E091
:103760000E947214882309F469C080914F03873046
:10377000B1F4E0914D0389E2E89FF0011124EF528A
:10378000FD4F80818F5F8083883038F480914E03B5
:103790008F5F80934E0380E64FC082E24DC08F5F03
:1037A00080934F034BC08DE492E00E9472148823F3
:1037B00049F080914C03853010F48F5F01C081E0A7
:1037C00080934C038FE492E00E9472148823B1F13D
:1037D0008EE7EFECF2E0A1E5B2E001900D928A9560
:1037E000E1F781E080934B021092500385E224C000
:1037F0008DE492E00E947214882331F0909150037E
:1038000081E08927809350038FE492E00E94721434
:103810008823A1F080915003882361F061E573E073
:103820008FEC92E00E94591761E573E084E691E025
:103830000E9404148091510280931202DF91CF9173
:103840001F910F9108950F931F9340913202509151
:1038500033026091340270913502411551056105C2
:103860007105B1F1009180011091810120918201D7
:10387000309183018091360290913702A0913802F5
:10388000B0913902840F951FA61FB71F081719079B
:103890002A073B07E8F08091800190918101A09177
:1038A0008201B09183018093360290933702A093F6
:1038B0003802B093390240E066ED73E082ED93E0A8
:1038C0000E94452B91E0811101C090E09093D103BB
:1038D0001F910F910895CF92DF92EF92FF920F9375
:1038E0001F9340913A0250913B0260913C027091CB
:1038F0003D02411551056105710509F460C1C09093
:103900008001D0908101E0908201F090830180914C
:103910003E0290913F02A0914002B0914102840F7B
:10392000951FA61FB71FC816D906EA06FB0608F49E
:1039300046C18091800190918101A0918201B09156
:10394000830180933E0290933F02A0934002B09384
:1039500041028091800190918101A0918201B091FA
:10396000830183FB002700F910E0119501951109EF
:103970000E94650580911202982F907E903409F480
:103980004DC0903609F47CC09111A1C0837E813076
:1039900049F0823069F46FEF7FEF84E192E00E949A
:1039A000A10806C06FEF7FEF84E192E00E94F70765
:1039B000809112028C7F8830D9F060F4843009F055
:1039C000F1C04FEF5FEF6091260284E192E00E9428
:1039D0003F09E8C08C3099F0803109F0E3C04FEF27
:1039E0005FEF60912902809128020E94A30BDAC048
:1039F0006FEF7FEF84E192E00E94090AD3C020912B
:103A0000D4033091D5030FEF1FEF4091D3036091A2
:103A1000D2038091D1030E94260BC4C0482F50E0EE
:103A2000FA01E054F109E830F105E0F4E259FF4F02
:103A30000C943C2D0F6F1F6EBDC00F6F176FBAC077
:103A40000F6F1B6FB7C00F6F1D6FB4C00F671F6F75
:103A5000B1C00F6B1F6FAEC00F6D1F6FABC00F619A
:103A6000106E05C00FEF1FEF873409F0A3C044E8C4
:103A700025E8609127028DE192E00E94510D92C0ED
:103A8000482F50E0FA01E056F109E730F105C8F49B
:103A9000EA58FF4F0C943C2D0F6F1E6F70C00F67DC
:103AA0001F6F8AC00F6B1F6F87C00F6D1F6F84C0A1
:103AB0000F6E1F6F81C0076F1F6F7EC00B6F1F6F70
:103AC0007BC00FEF1FEF803609F459C075C08332F9
:103AD00079F170F48132C9F0E8F4803209F062C003
:103AE000B8016F6D7F6F8091D0020E94750C5AC033
:103AF0008532E9F1A0F1803E09F054C080911002B6
:103B0000909111020E94C0124DC08FEF9FEF0E9452
:103B1000E00C48C080914D0349E2849FF0011124DC
:103B2000EF52FD4F4FEF5FEF60810E94320F3AC0BE
:103B300080914E0398012F6D3F6F90914D0349E2A4
:103B4000949FB001112495E0899F600D711D11248F
:103B50006E527D4F40914F030E94991023C0B801CF
:103B60006F6D7F6F80914C030E94B1111BC0B80133
:103B70006F6D7F6F809150030E94491213C040E81F
:103B800021E880914E0360914D0399E2699FB00155
:103B9000112495E0899F600D711D11246E527D4F97
:103BA0000E94AE0F1F910F91FF90EF90DF90CF908A
:103BB0000C94770543E85CCF43E825E8E2CF1F91FA
:103BC0000F91FF90EF90DF90CF9008950F931F9388
:103BD000409142025091430260914402709145022B
:103BE0004115510561057105B1F1009180011091F8
:103BF0008101209182013091830180914602909150
:103C00004702A0914802B0914902840F951FA61F58
:103C1000B71F081719072A073B07E8F080918001B2
:103C200090918101A0918201B0918301809346021D
:103C300090934702A0934802B093490282E00E9409
:103C40004D0490931102809310020E9479141F91E9
:103C50000F910C949C171F910F91089580914A0227
:103C6000882341F010924A026091260284E192E09A
:103C70000C94D92908954F925F926F927F928F9200
:103C80009F92AF92BF92CF92DF92EF92FF920F93EB
:103C90001F93CF93DF9380914B02882309F443C095
:103CA00010924B0260901802509019024090260228
:103CB00002E112E0E12CF12CC0E080E090E0D0E0E5
:103CC0007E2C5801E1E4AE0EB11C98012251324025
:103CD0006901F5012081D21770F0FFEFEF1AFF0A9A
:103CE000075D1F4F23E0E216F10439F785B1887FA5
:103CF000C82BC5B918C04C0135E0830E911CD830D3
:103D000061F38C0D9D1D242D452D662D8C5A9D4FE4
:103D10000E94B321072C01C0880F0A94EAF7C82B30
:103D2000DF5FC401D6CFDF91CF911F910F91FF903C
:103D3000EF90DF90CF90BF90AF909F908F907F904B
:103D40006F905F904F900895CF9380914C0288239D
:103D500009F43DC110924C0264E48AE092E00E94B2
:103D60009C2C60911402605D8AE092E00E949C2C81
:103D700060911502605D8AE092E00E949C2C6DE2E9
:103D80008AE092E00E949C2C80911602CAE06C2F7F
:103D90000E94E62C60E3680F8AE092E00E949C2C6F
:103DA000809116026C2F0E94E62C60E3690F8AE076
:103DB00092E00E949C2C6DE28AE092E00E949C2C92
:103DC000809117026C2F0E94E62C60E3680F8AE056
:103DD00092E00E949C2C809117026C2F0E94E62C8E
:103DE00060E3690F8AE092E00E949C2C6DE08AE01B
:103DF00092E00E949C2C6AE08AE092E00E949C2C57
:103E000064E58AE092E00E949C2C809118026C2F5D
:103E10000E94E62C60E3680F8AE092E00E949C2CEE
:103E2000809118026C2F0E94E62C60E3690F8AE0F3
:103E300092E00E949C2C6AE38AE092E00E949C2C13
:103E4000809119026C2F0E94E62C60E3680F8AE0D3
:103E500092E00E949C2C809119026C2F0E94E62C0B
:103E600060E3690F8AE092E00E949C2C6AE38AE09A
:103E700092E00E949C2C80911A026C2F0E94E62CEA
:103E800060E3680F8AE092E00E949C2C80911A0205
:103E90006C2F0E94E62C60E3690F8AE092E00E949A
:103EA0009C2C6DE08AE092E00E949C2C6AE08AE003
:103EB00092E00E949C2C61E48AE092E00E949C2C9B
:103EC0008091D103811151C08091D203811102C030
:103ED0006BE201C06DE28AE092E00E949C2C80912E
:103EE000D30364E60E94E62C60E3680F8AE092E068
:103EF0000E949C2C8091D303CAE06C2F0E94E62C78
:103F00000E94E62C60E3690F8AE092E00E949C2CFC
:103F10008091D3036C2F0E94E62C60E3690F8AE046
:103F200092E00E949C2C6EE28AE092E00E949C2C1F
:103F30008091D4039091D50368EE73E00E94F22C37
:103F4000605D8AE092E00E949C2C8091D403909165
:103F5000D50364E670E00E94F22CCB016AE070E0C9
:103F60000E94F22C60E3680F1FC060E28AE092E0DA
:103F70000E949C2C68E78AE092E00E949C2C68E7F3
:103F80008AE092E00E949C2C68E78AE092E00E941E
:103F90009C2C6EE28AE092E00E949C2C68E78AE00A
:103FA00092E00E949C2C68E78AE092E00E949C2CA0
:103FB0006DE08AE092E00E949C2C6AE08AE092E048
:103FC0000E949C2C8091C10080628093C100CF919F
:103FD0000895FF920F931F93CF93DF93CDB7DEB772
:103FE000E7970FB6F894DEBF0FBECDBFFF24F39462
:103FF000BE01695C7F4F84E092E00E94BD2C81117C
:1040000063C06FA987ED93E00E94602C8FA98A306E
:1040100079F70091D9031091DA0347E050E064E5A5
:1040200071E0C8010E94B42E892BA1F44091D803FD
:1040300050E047505109B801695F7F4FCE010196AA
:104040000E944122811106C08C89809328028D89AB
:10405000809329020091D9031091DA0347E050E0E0
:104060006CE571E0C8010E94B42E892B41F54091A6
:10407000D80350E047505109B801695F7F4FCE0126
:104080008C960E94C12781111AC080915202882308
:10409000B1F0809128028150823088F489E0FE01DD
:1040A000BC96A4E1B2E001900D928A95E1F784E11B
:1040B00092E00E943A0580932602F0924B0287ED2F
:1040C00093E00E945D2C94CFE7960FB6F894DEBF84
:1040D0000FBECDBFDF91CF911F910F91FF9008953B
:1040E000CF93DF93CDB7DEB72A970FB6F894DEBF34
:1040F0000FBECDBF109280011092810110928201FB
:10410000109283011092DB031092DC031092DD0306
:104110001092DE0384E190E0A0E0B0E080932A02F8
:1041200090932B02A0932C02B0932D0210922E029A
:1041300010922F02109230021092310248E552E0A4
:1041400060E070E040933202509333026093340297
:104150007093350210923602109237021092380294
:104160001092390280933A0290933B02A0933C0252
:10417000B0933D0210923E0210923F021092400214
:104180001092410288EC90E0A0E0B0E080934202FF
:1041900090934302A0934402B093450210924602CA
:1041A00010924702109248021092490210924A025D
:1041B00010924B0210924C028DE492E00E94611426
:1041C0008FE492E00E94611460E270E084E092E08B
:1041D0000E94852C60E270E08AE092E00E94852CCB
:1041E00060EC70E087ED93E00E94512C8FEF80939C
:1041F0002802109229021FBA0E94B2140E94BC1415
:104200000E94C7140E94E0140E94EF140E94FA1446
:10421000789461E573E084E691E00E94CB1361E558
:1042200073E081E592E00E949116809151028093A3
:10423000120281E08093D1031092D2031092D30333
:104240001092D5031092D4031092D60380E00E94FE
:10425000262B0AE0BE01665F7F4FCE0101960E94C9
:104260006E2ACE0101960E941205811111C089E0CB
:10427000FE013196A4E1B2E001900D928A95E1F73A
:1042800084E192E00E943A058093260211E001C089
:1042900010E062E070E080E090E00E949214015033
:1042A00019F01123B9F211C011110FC089E0EBE62A
:1042B000F1E0A4E1B2E001900D928A95E1F78BE67E
:1042C00091E00E943A058093260281E080934B02A0
:1042D0000E94A6170E94231C0E946B1C0E94E61DD0
:1042E0000E942E1E0E943B1E0E94A41E0E94E91FD7
:1042F000EFCFFC0110821182128213828FEF848330
:104300000895CF93DF93EC018881883148F4898147
:104310008C3330F48A81893118F48B818C3318F016
:10432000CE010E9479212A818B8190E03CE3239F7A
:10433000800D911D1124813A55E095075CF4488168
:10434000298130E05CE3459F200D311D1124821747
:10435000930718F488E18A831B828C8181608C83A7
:10436000DF91CF910895CF93DC01CC911196EC9120
:1043700011971296FC91129713967C9113971496AD
:104380008C9190E0DC0102C0B595A7952A95E2F7E3
:10439000CD0181709927A0FF20C050E0BCE36B9F46
:1043A000400D511D11248E2F90E02CE3C29F800DF3
:1043B000911D11244817590770F0872F90E0ACE346
:1043C000FA9F800D911D112431E04817590708F01C
:1043D00030E0832F02C080E090E08170CF9108959B
:1043E000FC01680F791F81E0E617F70749F021917A
:1043F00030E0205331092A303105B0F380E0F4CFAA
:104400000895FF920F931F93CF93DF93EC018C01DC
:10441000060F171FFF24F394C017D10741F08991AD
:1044200090E00E94A12E892BB9F7F12CF5CF8F2DAA
:10443000DF91CF911F910F91FF900895FC01AF0183
:10444000481B590B2191222331F030E020533109D0
:104450002A303105A0F3CA010895982F80ED890F05
:104460008A3070F08FEB890F863010F489EC05C02C
:104470008FE9890F863018F489EA890F089580E062
:1044800008952F923F924F925F926F927F928F92F8
:104490009F92AF92BF92CF92DF92EF92FF920F93D3
:1044A0001F93CF93DF93CDB7DEB7E6970FB6F8949F
:1044B000DEBF0FBECDBF2C016C877D872C853D856F
:1044C000240F351F3DAB2CAB18A63AE73B8F00E01D
:1044D0001FA211E0CE0101967C012CA93DA98C857B
:1044E0009D852817390709F417C2FC012191FD8722
:1044F000EC872E872A3009F40FC29E859C3229F062
:104500009A3219F09D3009F0F8C1F701E00FF11D62
:104510001082EFA18E2F90E08F30910508F0E8C156
:10452000FC01E358FF4F0C943C2D112309F4E0C12A
:10453000063008F4DCC166E070E0C7010E94F0219B
:10454000182F882309F4D4C189810E942D22182FA5
:104550008A810E942D22FAE01F9F800D11248AABD0
:104560008B810E942D22182F8C810E942D222AE0FF
:10457000129F800D112488AB8D810E942D22182F4F
:104580008E810E942D223AE0139F800D11248FA767
:104590004AA9483138F488A98C3320F481E09FA5DA
:1045A0009C3308F080E0182F117080FF6EC1063038
:1045B00009F46BC18F818E3209F067C1CE01089674
:1045C0000E941E224AE7A42E41E0B42E4701188E15
:1045D0001F8A6C01DD24C4018E199F093FEF831AE5
:1045E000930A8C159D0508F083C1F40186810E9411
:1045F0002D22F501329122915F01F82FF29FC00127
:10460000F39F900D11242F89388D280F391F388F73
:104610002F8BE1CF112309F46BC18FEF800F853011
:1046200008F465C1002309F433C1C7010E941E22AA
:10463000863008F4E1C11A8A198A1CA21BA257C14C
:10464000112309F455C1023008F051C1002309F4C7
:1046500024C189818DA74CC1112309F449C18FEF71
:10466000800F853008F443C1002309F419C1C70144
:104670000E941E22863008F42EC2188A1F8618A2B5
:104680001F8E35C1112309F433C1023008F02FC148
:10469000002309F40AC1898189A72AC1112309F4D9
:1046A00027C1013009F023C18981282F30E0205330
:1046B00031092A30310508F01AC10E942D228EAB33
:1046C00017C1112309F414C1043008F010C10023EC
:1046D00009F4EEC0C7010E941E222FEF280F2330DD
:1046E00008F468C21E8E03C1112309F401C10B3006
:1046F00008F0FDC0002309F4DDC0C7010E941E229E
:10470000863008F47AC2212C312C1D8E1C8EEFC00D
:10471000112309F4EDC00B3008F0E9C0002309F4BF
:10472000CEC08981282F30E02053310911E02A3092
:10473000310518F08D3209F010E0772473948D3232
:1047400009F0712C7EA6C701870D911D0E941E22C3
:104750009C0110FF03C091E0263008F090E0192F73
:10476000117090FDB5C21A8E198E1DA2C1C0112301
:1047700009F4BEC0023008F0BAC0002309F4A4C096
:1047800089818BABB5C0112309F4B2C00B3008F09E
:10479000AEC0002309F49BC08981282F30E020534C
:1047A000310911E02A30310518F08D3209F010E09E
:1047B000772473948D3209F0712C79AAC701870D83
:1047C000911D0E941E229C0110FF03C091E0263023
:1047D00008F090E0192F117090FDDFC21E8A1D8A2B
:1047E0001EA286C0112309F483C0023008F07FC0E6
:1047F000002309F471C089818CA77AC0112309F4C0
:1048000077C00B3008F073C0002309F468C0C701FB
:104810000E941E22863008F425C31C8A1B8A1AA215
:1048200019A265C0112309F463C011E0902F9B7F8A
:1048300009F010E0117009F45BC0002309F454C0C2
:1048400064E070E0C7010E940122182F811179C332
:104850004FC0112309F44CC0023009F048C062E097
:1048600070E0C7010E940122182F882309F440C07C
:1048700089810E942D22D82E8A810E942D2290E1CA
:10488000D99E800D112488A733C0188E1F8A30C08E
:104890001A8A198A1CA21BA22BC0EEE4EDA728C01D
:1048A000188A1F8618A21F8E23C0F5E4F9A720C01E
:1048B0001E8E1EC0212C312C1D8E1C8E19C01A8EEE
:1048C000198E1DA21EA614C02DE42BAB11C01E8A8A
:1048D0001D8A1EA219AA0CC03DE43CA709C01C8A6F
:1048E0001B8A1AA219A204C01BA61AA601C010E0B6
:1048F0004FA14F5F4FA300E006C0F701E00FF11D8D
:104900008E8580830F5F9FA19E3008F0E6CDEB8DF2
:10491000FE85EF27EB8FE1CD112309F452C03B8DCB
:1049200048A534134DC02AA9F201248338A9358340
:104930004FA546838F89988D908787839DA5918702
:104940002BA13CA13387228789899A8995878487FF
:1049500099A596872F8D38A1308B27878F859889C9
:10496000928B818B9EA9938B2E8D248B8C8D9D8D0C
:10497000968B858B308E278A29A13AA1328F218F81
:104980008B899C89948F838F9EA5958F2DA1268FCF
:10499000898D9A8D90A3878F9BA991A329A922A382
:1049A0003EA133A38D899E8995A384A39CA596A33C
:1049B0002AA53BA530A727A33B8D31A732A701C06D
:1049C00010E081E08127E6960FB6F894DEBF0FBEB7
:1049D000CDBFDF91CF911F910F91FF90EF90DF90AE
:1049E000CF90BF90AF909F908F907F906F905F908F
:1049F0004F903F902F9008956C01DD24C601880FE1
:104A0000991FFC01EC58FE4F5F01470136011CA2C3
:104A10001BA2882D8E1931E0631A710842E0A41A96
:104A2000B1086C147D04A8F4F40181914F010E9437
:104A30002D22F50120813181F82FF29FC001F39FD3
:104A4000900D11242BA13CA1280F391F3CA32BA3AF
:104A5000E0CFF701E80FF11D90819E32C9F5772470
:104A60007394780EC701870D911D0E941E223CE7AA
:104A7000A32E31E0B32E1A8A198A812C912C6C0155
:104A8000DD248C149D0408F033CF44E08416910497
:104A900009F42ECF66246394670CF701E70DF11D2E
:104AA00080810E942D22F501329122915F01F82F21
:104AB000F29FC001F39F900D112429893A89280F94
:104AC000391F3A8B298B3FEF831A930A762CD9CF63
:104AD0001A8A198A0DCF6C01DD24C601880F991F2F
:104AE0009C012C583E4F59014701360118A21F8ED8
:104AF000882D8E1931E0631A710842E0A41AB108BA
:104B00006C147D04A8F4F40181914F010E942D22C0
:104B1000F50120813181F82FF29FC001F39F900DA4
:104B200011242F8D38A1280F391F38A32F8FE0CFE4
:104B3000F701E80FF11D90819E32C9F57724739437
:104B4000780EC701870D911D0E941E222CE7A22E10
:104B500021E0B22E188A1F86812C912C6C01DD2455
:104B60008C149D0408F0C4CE44E08416910409F42A
:104B7000BFCE66246394670CF701E70DF11D8081B9
:104B80000E942D22F501329122915F01F82FF29FB0
:104B9000C001F39F900D11242F853889280F391FEC
:104BA000388B2F873FEF831A930A762CD9CF188A38
:104BB0001F869ECE6C01DD244701C601880F991F18
:104BC000FC01EC58FE4F5F0136011E8E21E0621A97
:104BD000710832E0A31AB1086C147D0408F088CE85
:104BE000F40181914F010E942D22F5019081FE8DEB
:104BF000899FF00D1124FE8FE9CF6C01DD24C601E1
:104C0000880F991F9C012C583E4F590147013601CE
:104C10001D8E1C8E882D8E1931E0631A710842E0BA
:104C2000A41AB1086C147D04A8F4F40181914F0119
:104C30000E942D22F50120813181F82FF29FC001C1
:104C4000F39F900D11242C8D3D8D280F391F3D8F22
:104C50002C8FE0CFF701E80FF11D90819E32A9F56E
:104C600077247394780EC701870D911D0E941E2230
:104C70000CE7A02E01E0B02E212C312C812C912CA0
:104C80006C01DD248C149D0408F032CE34E08316D0
:104C9000910409F42DCE66246394670CF701E70DA7
:104CA000F11D80810E942D22F501329122915F0138
:104CB000F82FF29FC001F39F900D1124280E391E8A
:104CC0002FEF821A920A762CDDCF212C312C10CEB8
:104CD0006901DD24C601880F991FFC01EC58FE4FC5
:104CE0005F0146011DA221E0821A910832E0A31A59
:104CF000B108872D90E08C149D0478F47394F7012B
:104D0000E80FF91F80810E942D22F5019081FDA1FD
:104D1000899FF00D1124FDA3E6CFF701E80FF91FDD
:104D200080818E32B9F57394C701870D911D0E9461
:104D30001E22BCE7AB2EB1E0BB2E1A8E198E812C41
:104D4000912C6C01DD248C149D0408F0D1CD44E03D
:104D50008416910409F4CCCD66246394670CF701A2
:104D6000E70DF11D80810E942D22F50132912291E3
:104D70005F01F82FF29FC001F39F900D1124298D40
:104D80003A8D280F391F3A8F298F3FEF831A930AE4
:104D9000762CD9CF1A8E198EABCD6901DD24C601D0
:104DA000880F991F9C012C583E4F590146011EA2A5
:104DB00021E0821A910832E0A31AB108872D90E011
:104DC0008C149D0478F47394F701E80FF91F808127
:104DD0000E942D22F5019081FEA1899FF00D1124E2
:104DE000FEA3E6CFF701E80FF91F80818E32B9F5F7
:104DF0007394C701870D911D0E941E22ACE7AA2E55
:104E0000A1E0BA2E1E8A1D8A812C912C6C01DD2412
:104E10008C149D0408F06CCD44E08416910409F4D0
:104E200067CD66246394670CF701E70DF11D80815F
:104E30000E942D22F501329122915F01F82FF29FFD
:104E4000C001F39F900D11242D893E89280F391F31
:104E50003E8B2D8B3FEF831A930A762CD9CF1E8A77
:104E60001D8A46CD6C01DD24C601880F991FFC0107
:104E7000EC58FE4F5F01470136011AA219A2882D96
:104E80008E1931E0631A710842E0A41AB1086C145B
:104E90007D04A8F4F40181914F010E942D22F501B7
:104EA00020813181F82FF29FC001F39F900D1124D2
:104EB00029A13AA1280F391F3AA329A3E0CFF7016E
:104EC000E80FF11D90819E32C9F577247394780E16
:104ED000C701870D911D0E941E22FCE7AF2EF1E055
:104EE000BF2E1C8A1B8A812C912C6C01DD248C1412
:104EF0009D0408F0FDCC44E08416910409F4F8CC3C
:104F000066246394670CF701E70DF11D80810E9410
:104F10002D22F501329122915F01F82FF29FC001FD
:104F2000F39F900D11242B893C89280F391F3C8B4E
:104F30002B8B3FEF831A930A762CD9CF1C8A1B8ABE
:104F4000D7CC89810E942D22C82E8A810E942D22D1
:104F5000D12CDC2CCC24D29490EFD922D82A8B816E
:104F60000E942D22B82E8C810E942D22C82AF0E1A9
:104F7000BF9EC00111249601282B392B3BA72AA7DD
:104F8000B7CC3F924F925F926F927F928F929F9297
:104F9000AF92BF92CF92DF92EF92FF920F931F9347
:104FA000CF93DF93CDB7DEB76C970FB6F894DEBF23
:104FB0000FBECDBF4C016B019B01240F351F3A8FF3
:104FC000298F412C24E6522EB12C312C11E0CE0138
:104FD00001967C01898D9A8DC816D90609F4A0C165
:104FE000F60101916F010A3009F49AC18B2D90E00E
:104FF0000C3229F00A3219F00D3009F086C1F701A0
:10500000E80FF91F1082832D90E08730910508F09A
:1050100079C1FC01E457FF4F0C943C2D112309F496
:1050200071C195E09B1508F06CC166E070E0C701A6
:105030000E94F021182F882309F464C189810E94FD
:105040002D22182F8A810E942D22A82EEAE01E9F71
:10505000A00C1124A88A8B810E942D22182F8C81EC
:105060000E942D22FAE01F9F800D1124182F898B9A
:105070008D810E942D22782E8E810E942D22982FC4
:105080002AE0729E900D11249A8B1C8A1B8A37E1AC
:105090003A1528F01C3318F481E09C3308F080E0C6
:1050A000182F117080FF2EC146E0B41609F42AC1F2
:1050B0008F818E3209F026C1CE0108960E941E22F1
:1050C000EAE7F1E0F88FEF8B5701612C712C9C011E
:1050D00033273C8F2B8FC5018E199F092FEFA21A02
:1050E000B20AEB8DFC8D8E179F0798F4F50186812F
:1050F0000E942D22EF89F88D32912291F88FEF8B4B
:10510000F82FF29FC001F39F900D1124680E791EB5
:10511000E2CF7C8A6B8AF6C0112309F4F3C0F2E077
:10512000BF12EFC062E070E0C7010E94F021182FAB
:10513000882309F4E7C089810E942D22B82E8A8134
:105140000E942D222AE0B29E800D11248F87DAC0A2
:10515000112309F4D7C032E0B312D3C062E070E08B
:10516000C7010E94F021182F882309F4CBC0898140
:105170000E942D22182F8A810E942D224AE0149F1E
:10518000800D11248E87815011E08C3008F4BAC054
:10519000B8C0112309F4B6C084E0B812B2C064E00C
:1051A00070E0C7010E94F021182F882309F4AAC0DB
:1051B0008B810E942D22182F8C878C810E942D229A
:1051C0008D871A3060F48A3050F4BF84BB2039F0E8
:1051D000CE010C960E948D0411E08B1508F410E0AE
:1051E000117090C0112309F48DC081E0BB2029F01B
:1051F0009EEF9B0D923008F080E0182F117080FF19
:1052000081C0BB2009F47EC08981282F30E0205363
:10521000310911E02A30310518F08D3209F010E023
:10522000AA24A394B12C8D3211F0A12CB12CC7016A
:105230008A0D9B1D0E941E2210FF06C091E0823045
:1052400009F090E0892F01C080E0182F117080FDD7
:1052500041C058C0112309F455C011E09B2D9D7F1A
:1052600009F010E0117009F44DC0BB2009F44AC0E8
:1052700062E070E0C7010E94F021182F882309F432
:1052800041C089810E942D22182F8A810E942D22DF
:105290009AE0199F800D112411E08C3398F131C0F0
:1052A000112381F1E2E0BE122CC062E070E0C70180
:1052B0000E940122182F882329F189810E942D2222
:1052C000B82E8A810E942D22482EF0E1BF9E400C0C
:1052D000112418C0F701EA0DFB1D80810E942D22C8
:1052E000182FE2E0F0E0EC0FFD1FEA0DFB1D8081BE
:1052F0000E942D22FAE01F9F800D112411E08E30B4
:1053000008F010E03394B12C05C0F701E80FF91F45
:105310000083B39425E0231508F45CCE50265ACEC2
:105320005D8A4E8A112331F1541411F010E022C02D
:105330008989282F30E02C333105CCF18C53898BAF
:105340002AE08889422F50E0480F511D483151050D
:105350005CF198EE980F892F820F888BCE010C9606
:105360000E94BB048BE0FE013C96D40101900D929B
:105370008A95E1F781E081276C960FB6F894DEBF3D
:105380000FBECDBFDF91CF911F910F91FF90EF9096
:10539000DF90CF90BF90AF909F908F907F906F9055
:1053A0005F904F903F900895820F888BDBCF29E06C
:1053B000C8CFCF92DF92EF92FF921F93CF93DF93EC
:1053C000CDB7DEB728970FB6F894DEBF0FBECDBFBE
:1053D000FC01362F86812AE0622F0E94E62C492F9D
:1053E0000E94E62C50E1959FC0011124842B8F77F9
:1053F000898385810E94E62C492F0E94E62C50E18A
:10540000959FC0011124842B8F778A8384810E9409
:10541000E62C492F0E94E62C50E1959FC0011124F3
:10542000842B8F738B8337703C8383810E94E62C9F
:10543000392F0E94E62C40E1949FC0011124832B58
:105440008F738D8382810E94E62C392F0E94E62C77
:1054500050E1959FC0011124832B8F718E83808131
:1054600020E1829FC00111249181892B8F8380E1EB
:1054700088870E94D62B81111FC080ED0E94EA2BE5
:1054800081111AC00E94022C811116C0AE014F5F1B
:105490005F4F7A016E0159E0C50ED11CF701819171
:1054A0007F010E94022C182F811106C0EC14FD040C
:1054B000A9F70E94E62B03C00E94E62B11E0812F82
:1054C00028960FB6F894DEBF0FBECDBFDF91CF9107
:1054D0001F91FF90EF90DF90CF900895AF92BF9211
:1054E000CF92DF92EF92FF920F931F93CF93DF93B0
:1054F000CDB7DEB727970FB6F894DEBF0FBECDBF8E
:105500008C017B010E94D62B81118AC080ED0E9404
:10551000EA2B811185C00E94022C811181C00E945A
:10552000D62B81117DC081ED0E94EA2B811178C0BC
:105530009E012F5F3F4F69015E0137E0A30EB11C52
:1055400061E0C6010E94122C81116AC07FEFC71A68
:10555000D70ACA14DB04A1F760E0C6010E94122C2E
:10556000D82E81115DC00E94E62B8981582F569557
:10557000569556955E70952F990F990F590F8F700C
:10558000580F8A81982F92959F708F70482FEAE06C
:105590009E9F400D11248B81282F2F7086FF0DC0F8
:1055A00084FB992790F9990F392F330F330F930FFD
:1055B000920F85FF0CC0945F0AC0869586958695EC
:1055C0008670982F990F990F890F982F920F6C81E1
:1055D0008D812E813F81732F72957F70F8017083CA
:1055E0003F703183322F32953F702F70FAE03F9F2A
:1055F000200D1124F8012283282F22952F708F70FF
:10560000FAE02F9F800D1124F80183839483458352
:10561000568384EF91E090878783F701608304C00D
:105620000E94E62BDD24D3948D2D27960FB6F89497
:10563000DEBF0FBECDBFDF91CF911F910F91FF90C5
:10564000EF90DF90CF90BF90AF900895CF93DF930E
:10565000D82F0E94D62B811111C080E90E94EA2B1D
:1056600081110CC083E00E94022CC82F811106C05A
:105670008D2F0E94022C0E94E62B03C00E94E62B75
:10568000C1E08C2FDF91CF910895CF92DF92EF92FE
:10569000FF920F931F93CF93DF9300D0CDB7DEB768
:1056A0008C017B01C42E0E94D62B81116AC080E937
:1056B0000E94EA2B811165C00E94022C811161C0F9
:1056C0000E94D62B81115DC081E90E94EA2B8111D5
:1056D00058C061E0CE0102960E94122C811151C087
:1056E00060E0CE0101960E94122CD82E811149C093
:1056F0000E94E62BC11007C08981982F9770C92E90
:10570000887F898301C0C12C9A818981292F30E04B
:10571000322F2227A901330F660B770B9A01AB01B9
:10572000282B97FF13C0A0EFB8ED0E94502DDC018D
:10573000CB01A05FB84DBC01CD0137E096958795B0
:10574000779567953A95D1F721E00CC0A0E1B7E2D3
:105750000E94422D27E096958795779567952A9523
:10576000D1F720E0F801208320E137E240E050E06B
:105770000E941A2DF801218373836283F701C0828E
:1057800004C00E94E62BDD24D3948D2D0F900F9042
:10579000DF91CF911F910F91FF90EF90DF90CF900D
:1057A00008958091BC0087FFFCCF089584EA809320
:1057B000BC000E94D12B8091B900887F883021F0F5
:1057C000803111F081E0089580E0089584E98093AC
:1057D000BC000895CF93C82F8093BB0084E88093CA
:1057E000BC000E94D12B8091B900887FC0FF03C00C
:1057F000803429F002C0883111F081E001C080E0DE
:10580000CF9108958093BB0084E88093BC000E94F0
:10581000D12B8091B900887F883211F081E0089502
:1058200080E00895CF93DF93EC01611102C084E81A
:1058300001C084EC8093BC000E94D12B8091B90000
:10584000887F803511F0883529F48091BB008883EA
:1058500080E001C081E0DF91CF9108959091C00078
:1058600095FFFCCF9091C00090649093C00080930E
:10587000C60008950F931F93CF938C01C62F972FC7
:1058800061E070E08C2F0E94642DF8019383828385
:10589000892B09F4C0E0F801C083CF911F910F91CB
:1058A0000895CF93DF93EC0118821B821A820E9425
:1058B0003A2C1982DF91CF910895FC01118208954D
:1058C000FC0191818081981761F08281938121810F
:1058D00031E0320F3183FC01E20FF11D608380E083
:1058E000089581E008951F93CF93DF93EC01162F65
:1058F000972F61E070E0812F0E94642D9D838C833F
:105900001883DF91CF911F910895FC0111821282BB
:105910001382158214820C94732CFC0183818111F3
:1059200008C091E021818281281301C090E0892F75
:1059300001C081E081700895FC01838181111BC049
:105940008281A481B581A80FB11D6C938281482FFB
:1059500050E0208130E0215031094217530714F400
:105960008F5F01C080E0828391E02181281390E065
:10597000938380E0089581E008950F931F93CF9360
:10598000DF93EC018B010E948D2C8823C9F0898163
:10599000EC81FD81E80FF11D8081F8018083898110
:1059A000482F50E0288130E0215031094217530739
:1059B00014F48F5F01C080E089831B8280E001C006
:1059C00081E0DF91CF911F910F910895991B79E0AC
:1059D00004C0991F961708F0961B881F7A95C9F77F
:1059E00080950895AA1BBB1B51E107C0AA1FBB1FCE
:1059F000A617B70710F0A61BB70B881F991F5A955B
:105A0000A9F780959095BC01CD01089597FB072ECD
:105A100016F4009407D077FD09D00E94F22C07FC01
:105A200005D03EF4909581959F4F089570956195AE
:105A30007F4F0895A1E21A2EAA1BBB1BFD010DC0CA
:105A4000AA1FBB1FEE1FFF1FA217B307E407F5072E
:105A500020F0A21BB30BE40BF50B661F771F881F0A
:105A6000991F1A9469F760957095809590959B01A0
:105A7000AC01BD01CF010895EE0FFF1F0590F49119
:105A8000E02D09940E94552DA59F900DB49F900D77
:105A9000A49F800D911D11240895B7FF0C94422DF1
:105AA0000E94422D821B930B0895A29FB001B39FC9
:105AB000C001A39F700D811D1124911DB29F700D17
:105AC000811D1124911D08950F931F93CF93DF9390
:105AD000869F8001879F100D969F100D1124C8018D
